:020000040800F2
:10000000A81600201D310008ED050008EF050008C6
:10001000F3050008F7050008FB05000800000000D4
:10002000000000000000000000000000FF050008C4
:10003000010600080000000003060008050600088D
:1000400037310008373100083731000837310008F0
:1000500037310008373100086F2900081B2A0008D3
:10006000C72A000837310008373100083731000847
:1000700037310008373100083731000837310008C0
:1000800037310008373100083731000837310008B0
:10009000373100083731000837310008732B00086A
:1000A0003731000837310008373100083731000890
:1000B000D50D0008510E000837310008373100080F
:1000C0003731000837310008373100083731000870
:1000D0003731000893300008373100083731000805
:1000E0003731000837310008373100083731000850
:1000F0003731000837310008373100083731000840
:10010000373100083731000837310008373100082F
:1001100037310008373100086F2D000837310008EB
:10012000373100083731000837310008373100080F
:1001300000F002F800F06EF80AA090E8000C82448B
:100140008344AAF10107DA4501D100F063F8AFF268
:10015000090EBAE80F0013F0010F18BFFB1A43F0A5
:1001600001031847646B0000846B000010F8013B2A
:100170000A4413F0030408BF10F8014B1D1108BF17
:1001800010F8015B641E05D010F8016B641E01F8C5
:10019000016BF9D1002D15D010F8014B03F00C03C1
:1001A0000C2BA1EB04040ABF10F8013BA4EB831451
:1001B000A4EB032405F1010314F8016B5B1E01F8A5
:1001C000016BF9D5914238BF10F8013BD1D370478C
:1001D0000023002400250026103A28BF78C1FBD850
:1001E000520728BF30C148BF0B607047662906F030
:1001F0001E85642904F08285002070471FB505F034
:1002000035F804000020002105F084FDE0601FBDEA
:1002100010B510BD05F042F91146FFF7EFFF00F0F1
:1002200009F805F060F903B4FFF7F2FF03BC02F030
:10023000C9FE000000B58BB01E200A9009900890FE
:10024000079006902D2005904FF4A06002F086FFE5
:1002500002F034FE4FF4E13002F0CFFE00F0C4FAB9
:100260000A210C2000F00AFB472140F2E73002F09F
:100270004EFD4FF4C86001F0BFF84FF4FA610598E5
:10028000CDE9001003464A42CDE90210014610466E
:1002900000F052FE00F035FB4FF47A510598CDE99D
:1002A000001003464A42CDE902100146104601F013
:1002B00077F800F072FB4FF496710598CDE90010C5
:1002C00003464A42CDE902100146104600F02DFFD8
:1002D000BD4ADDE90701CDE90121CDE903200998F7
:1002E00053420090194601200A9A01F08AFCB7494E
:1002F0000598CDE9001003464A42CDE902100146B7
:10030000104600F019FE00F0FCFA2D20B049CDE9AE
:10031000001003464A42CDE902100146104601F0A2
:100320003FF800F0CCFBAB490598CDE9001003463F
:100330004A42CDE902100146C82000F0F6FEA64A66
:10034000DDE90701CDE90121CDE9032009985342F8
:100350000090194600200A9A01F053FC002001F099
:1003600075F94FF4C86001F0A9F84FF4FA610598E7
:10037000CDE9001003464A42CDE90210014610467D
:1003800000F0DAFD00F0BDFA4FF47A510598CDE99E
:10039000001003464A42CDE902100146104600F023
:1003A000FFFF00F0FAFA4FF496710598CDE90010BE
:1003B00003464A42CDE902100146104600F0B5FE60
:1003C0004BF66872DDE90701CDE90121CDE9032093
:1003D000099853420090194601200A9A01F011FC35
:1003E000012001F033F94FF4C86001F0C9F87B49EE
:1003F0000598CDE9001003464A42CDE902100146B6
:10040000104600F099FD00F07CFA75490598CDE999
:10041000001003464A42CDE902100146104600F0A2
:10042000BFFF00F04CFB6B4964310598CDE900102B
:1004300003464A42CDE902100146104600F075FE1F
:10044000654ADDE90701CDE90121CDE903200998DD
:1004500053420090194600200A9A01F0D2FB002076
:1004600001F0F4F84FF4C86001F028F84FF4FA6195
:100470000598CDE9001003464A42CDE90210014635
:10048000104600F059FD00F03CFA4FF47A510598FF
:10049000CDE9001003464A42CDE90210014610465C
:1004A00000F07EFF00F079FA4FF496710598CDE9DF
:1004B000001003464A42CDE902100146104600F002
:1004C00034FE4BF66872DDE90701CDE90121CDE983
:1004D0000320099853420090194601200A9A01F01E
:1004E00090FB012001F0B2F84FF4E16001F048F810
:1004F0003C490598CDE9001003464A42CDE9021077
:100500000146104600F018FD00F0FBF9344905984B
:10051000CDE9001003464A42CDE9021001461046DB
:1005200000F03EFF00F0CBFA2A4964310598CDE98E
:10053000001003464A42CDE902100146104600F081
:10054000F4FD254ADDE90701CDE90121CDE90320CC
:10055000099853420090194600200A9A01F051FB75
:10056000002001F073F84FF4C8625342DDE907013F
:10057000CDE90031CDE902205042DDE9093100F03A
:10058000DBFC00F0BEF943F698214A420698CDE91B
:10059000002003460A46CDE902100146124800F049
:1005A000FFFE00F0AEF9C8225342DDE90701CDE9B4
:1005B0000031CDE902205042DDE9093100F0B5FDFE
:1005C00000200BB000BD0000700B0200C0F9FFFF5F
:1005D00008EEFFFF70FEFFFF9840FFFF30F8FFFFBF
:1005E000E0B1FFFF3CF6FFFF68C5FFFF704700BFAB
:1005F000FEE700BFFEE700BFFEE700BFFEE7704773
:1006000070477047704700000CB5002001900090C3
:100610006C48006840F480306A49086000BF69484F
:10062000006800F4003000900198401C0190009890
:1006300018B90198B0F5A06FF1D16248006800F4D4
:10064000003010B10120009001E0002000900098DF
:10065000012843D15C48006840F010005A49086006
:100660000846006820F0030008600846006840F073
:100670000200086053484068524948600846406894
:1006800048600846406840F480604860084640681A
:1006900020F47C1048600846406840F4E810486048
:1006A0000846006840F08070086000BF4548006858
:1006B00000F000700028F9D04248406820F00300A4
:1006C000404948600846406840F00200486000BF6A
:1006D0003C48406800F00C000828F9D10CBD10B56A
:1006E000FFF792FF10BD10B53648006840F00100DA
:1006F0003449086008464068344908403149486038
:1007000008460068324908402E49086008460068DB
:1007100020F4802008600846406820F4FE0048600D
:100720004FF41F008860FFF7DAFF4FF0006029499F
:10073000086010BD10B5002100200022214B5B682D
:1007400003F00C0121B1042906D0082928D107E0C3
:10075000214B224C236027E01F4B204C236023E0D9
:10076000184B5B6803F47010164B5B6803F480321F
:10077000022303EB904022B9194B4343174C2360EB
:100780000DE0104B5B6803F4003323B1144B43437B
:10079000124C236003E0104B4343104C236003E0F2
:1007A0000D4B0E4C236000BF00BF064B5B68C3F3CC
:1007B00003130C4CE15C094B1B68CB40074C2360D6
:1007C00010BD000000100240002002400000FFF8B1
:1007D000FFFFF6FE08ED00E000127A0000000020A6
:1007E00000093D000400002008B501219C2003F011
:1007F0003FF83320ADF8000010208DF803000320EF
:100800008DF802006946194802F076FD3321174839
:1008100002F021FE0720ADF8000010208DF8030043
:1008200003208DF802006946114802F065FD202082
:10083000ADF8000010208DF8030003208DF80200B1
:1008400069460C4802F058FDFE20ADF80000282053
:100850008DF8030003208DF802006946064802F077
:100860004BFDFE21044802F0F6FD08BD00080140E2
:10087000000C014000100140001C01407FB50546FE
:100880000C460121084603F000F8ADF80850ADF819
:1008900004400020ADF80A00ADF8060001A94FF0B1
:1008A000804003F01DF901221146900703F08FFCF0
:1008B0001C208DF8000000208DF801008DF802004A
:1008C00001208DF80300684602F04DFC01218807E5
:1008D00003F062FC7FBD10B500EB4002F94B53F80A
:1008E000222002EB410200EB4003F64C04EB8303B1
:1008F0005A6010BD00EB4002F24B03EB82029160A4
:100900007047F0484068EF490968884202D00120EA
:10091000ED49087014E0EB484068EA4909688842EC
:100920000ED10020E749486008600021E5480161D8
:10093000C160C1618161816241620020E249087049
:10094000E14800780028E6D1704710B5DD484068DE
:10095000DC490968884202D00120DB49087017E0B1
:10096000DA480068A0B9052002F0E5FAD748006827
:1009700070B90020D349486008600021D148016166
:10098000C160C1618161816241620020CE4908700D
:10099000CD4800780028E3D110BD10B5C9484068A3
:1009A000C8490968884202D00120C749087021E07F
:1009B000C6481038006818B1C4480C380068C8B977
:1009C000052002F0B8FAC1481038006818B1BF48D5
:1009D0000C38006870B90020BA49486008600021EE
:1009E000B8480161C160C1618161816241620020DA
:1009F000B5490870B44800780028D9D110BD10B5A9
:100A0000B0484068AF490968884202D00120AE4929
:100A1000087025E0AD4808380068012820D1AB48AF
:100A2000001F006801281BD1052002F084FAA748A6
:100A300008380068012813D1A448001F0068012865
:100A40000ED100209F494860086000219D48016147
:100A5000C160C16181618162416200209A49087070
:100A6000994800780028D5D110BD10B59548406848
:100A700094490968884202D001209349087019E01E
:100A80009248001D0068A8B9052002F054FA8F486A
:100A9000001D006870B900208A4948600860002184
:100AA00088480161C160C161816181624162002049
:100AB00085490870844800780028E1D110BD10B540
:100AC000804840687F490968884202D001207E49F9
:100AD000087021E07D480838006818B17B48001F85
:100AE0000068C8B9052002F026FA7848083800687E
:100AF00018B17648001F006870B90020714948603D
:100B0000086000216F480161C160C161816181623B
:100B1000416200206C4908706B4800780028D9D1E8
:100B200010BD7FB5282500266648406865490968DC
:100B3000884202D00120644908704FE063480830C1
:100B4000006868B9052002F0F6F9604808300068CE
:100B500030B95C480468012600205A4908604860A2
:100B60005848406857490968884237D1002055499C
:100B700048600860002153480161C160C161816122
:100B800081624162002050490870012E26D1022066
:100B900000F05CFD002000F059FD2D204FF4C861ED
:100BA0004B42CDE9003003460A46CDE9021001462A
:100BB000474800F0C1F9FFF7A4FE43F25840011B7B
:100BC000201ACDE9015143F258410A1B2B46294610
:100BD0000395009000F0E4FBFFF793FE3A4800789D
:100BE0000028ABD17FBD37498968B0FBF1F201FB2A
:100BF000120171BB33490968324A5268914211DAD5
:100C00000021344A11602F498968B0FBF1F101F0ED
:100C10000101314AC2F880112A490968491C294A50
:100C2000116016E027490968264A5268914210DD92
:100C30000121284A116023498968B0FBF1F101F0D4
:100C40000101254AC2F880111E490968491E1D4A42
:100C5000116070471B494969B0FBF1F201FB1201B9
:100C600071BB1849CA6809698A4212DA0021194A17
:100C7000121D116013494969B0FBF1F101F0010146
:100C8000154AC2F884110F49C968491C0D4AD16040
:100C900016E00C49CA6809698A4211DD01210D4A32
:100CA000121D116007494969B0FBF1F101F0010122
:100CB000094AC2F884110349C968491E014AD16032
:100CC000704700004C0F00201800002014812342C0
:100CD000C0F9FFFF80812142000021428C49096A4E
:100CE000B0FBF1F201FB120161BB89498A69C96954
:100CF0008A4211DA0021874A11608549096AB0FBEE
:100D0000F1F101F00101844AC2F89011804989692A
:100D1000491C7F4A916115E07D498A69C9698A4207
:100D200010DD01217B4A11607949096AB0FBF1F1BC
:100D300001F00101784AC2F8901175498969491E8C
:100D4000734A916170477249C96AB0FBF1F201FBC5
:100D5000120161BB6E494A6A896A8A4211DA00212E
:100D60006E4A11606A49C96AB0FBF1F101F00101F4
:100D7000694AC2F894116649496A491C644A516239
:100D800015E063494A6A896A8A4210DD0121634A93
:100D900011605F49C96AB0FBF1F101F001015E4ADF
:100DA000C2F894115A49496A491E594A516270471A
:100DB00000B55B480068FFF716FF59480068FFF769
:100DC00049FF57480068FFF789FF55480068FFF75B
:100DD000BAFF00BD10B50121880703F0A6FC30B1B1
:100DE000FFF7E6FF4E480068401C4D4908600121AE
:100DF000880703F0ABFC10BD7FB505460C4601210A
:100E0000022002F042FDADF80850ADF80440002089
:100E1000ADF80A00ADF8060001A9424802F060FEF4
:100E2000012211463F4803F0D2F91D208DF8000041
:100E300000208DF8010001208DF802008DF80300DC
:100E4000684602F090F90121364803F0A5F97FBD0C
:100E500010B50121334803F068FC58B10121314835
:100E600003F074FC3048006808B9012000E000205D
:100E70002D49086010BD30B589B005460C460121EA
:100E8000022002F002FD0121092002F0F1FC012103
:100E9000264802F002FB0121254802F0FEFA30202C
:100EA000ADF8200018208DF8230003208DF82200D3
:100EB00008A9204802F020FAADF81850ADF8144007
:100EC0000020ADF81A00ADF8160005A9154802F08B
:100ED00007FE7020ADF804000120ADF806000020E8
:100EE000ADF80C0001A90F4802F079FE01A90D48E8
:100EF00002F033FE08210B4803F087FA0821094865
:100F000003F07AFA0121074803F046F909B030BD31
:100F10004C0F00208881214200002142940122428E
:100F2000140000200004004094012342000230001D
:100F300000081A00000C01402DE9F05F05468846C4
:100F400016461F46DDE90BABDDF828902946002048
:100F5000FFF7C1FC31460120FFF7BDFC49460220E6
:100F6000FFF7B9FC59460320FFF7B5FC00241DE04C
:100F7000F84850F8248050F8247050F824A050F815
:100F800024000D90042001F0D6FF41460020FFF719
:100F9000B1FC39460120FFF7ADFC51460220FFF7B6
:100FA000A9FC03200D99FFF7A5FC641CF02CDFDBE6
:100FB000BDE8F09F2DE9F05F0546884616461F46BE
:100FC000DDE90BABDDF8289029460020FFF783FC14
:100FD00031460120FFF77FFC49460220FFF77BFCEA
:100FE00059460320FFF777FC00241DE0DA4850F84B
:100FF000248050F8247050F824A050F824000D905C
:10100000042001F098FF41460020FFF773FC3946A9
:101010000120FFF76FFC51460220FFF76BFC032015
:101020000D99FFF767FC641CB4F5FF7FDEDBBDE8BC
:10103000F09F2DE9F05F0546884616461F46DDE91C
:101040000BABDDF8289041460020FFF744FC394601
:101050000120FFF740FC51460220FFF73CFC032033
:101060000D99FFF738FC00241DE0BA4850F82460C1
:1010700050F8249050F824B050F824000E9002202C
:1010800001F035FF31460020FFF734FC49460120CE
:10109000FFF730FC59460220FFF72CFC03200E9985
:1010A000FFF728FC641CAC42DFDBBDE8F09F2DE9B4
:1010B000F05F0546884616461F46DDE90BABDDF8B6
:1010C000289041460020FFF706FC39460120FFF733
:1010D00002FC51460220FFF7FEFB03200D99FFF7AB
:1010E000FAFB00241DE09B4850F8246050F824903F
:1010F00050F824B050F824000E90022001F0F7FEC2
:1011000031460020FFF7F6FB49460120FFF7F2FBCE
:1011100059460220FFF7EEFB03200E99FFF7EAFB8A
:10112000641CAC42DFDBBDE8F09F2DE9F05F0546B3
:10113000884616461F46DDE90BABDDF828902946A8
:101140000020FFF7C8FB31460120FFF7C4FB4946EA
:101150000220FFF7C0FB59460320FFF7BCFBEF243A
:101160001DE07C4850F8248050F8247050F824A0EA
:1011700050F824000D90642001F0B9FE4146002093
:10118000FFF7B8FB39460120FFF7B4FB51460220B8
:10119000FFF7B0FB03200D99FFF7ACFB641E002C9A
:1011A000DFDABDE8F09F2DE9F05F05468846164678
:1011B0001F46DDE90BABDDF8289029460020FFF73C
:1011C0008AFB31460120FFF786FB49460220FFF7E4
:1011D00082FB59460320FFF77EFB40F2F9141DE025
:1011E0005D4850F8248050F8247050F824A050F83E
:1011F00024000D90032001F09EFE41460020FFF7E1
:1012000079FB39460120FFF775FB51460220FFF7B5
:1012100071FB03200D99FFF76DFB641E002CDFDAD4
:10122000BDE8F09F2DE9F05F0546884616461F464B
:10123000DDE90BABDDF8289041460020FFF74BFBC2
:1012400039460120FFF747FB51460220FFF743FBD9
:1012500003200D99FFF73FFB2C461DE03D4850F859
:10126000246050F8249050F824B050F824000E90D8
:10127000022001F060FE31460020FFF73BFB4946AB
:101280000120FFF737FB59460220FFF733FB03200D
:101290000E99FFF72FFB641E002CDFDABDE8F09FEC
:1012A0002DE9F05F0546884616461F46DDE90BAB83
:1012B000DDF8289029460020FFF70DFB314601207C
:1012C000FFF709FB49460220FFF705FB59460320BB
:1012D000FFF701FB1D241DE01F4850F8248050F843
:1012E000247050F824A050F824000D901E2001F026
:1012F00022FE41460020FFF7FDFA39460120FFF7A4
:10130000F9FA51460220FFF7F5FA03200D99FFF78D
:10131000F1FA641E002CDFDABDE8F09F2DE9F05FE2
:101320000546884616461F46DDE90BABDDF82890DA
:1013300029460020FFF7CFFA31460120FFF7CBFA0C
:1013400049460220FFF7C7FA59460320FFF7C3FAC0
:10135000002421E020000020E0030020FD4850F898
:10136000248050F8247050F824A050F824000D90E8
:101370001E2001F0E0FD41460020FFF7BBFA394690
:101380000120FFF7B7FA51460220FFF7B3FA032016
:101390000D99FFF7AFFA641C1E2CDFDBBDE8F09F50
:1013A0002DE9F05F04460F4615461E46DDE90CABFD
:1013B000DDE90A8921460020FFF78DFA2946012040
:1013C000FFF789FA41460220FFF785FA51460320CC
:1013D000FFF781FA39460020FFF78CFA31460120E9
:1013E000FFF788FA49460220FFF784FA594603209E
:1013F000FFF780FABDE8F09F7FB504462D216042DB
:10140000CDE900410B466242CDE902012046FFF7DB
:1014100093FDFFF776FA2320CF494B42CDE9003008
:1014200003460A46CDE90210014642F21070FFF76A
:10143000B7FFCA484068C9490968884200D00125F9
:101440001BE0C7480068C0B9052001F074FDC4481E
:10145000006890B9052001F06EFDC148006860B9D0
:101460000020BE49486008600021BC480161C1609D
:10147000C1618161816241620025002DE1D123209B
:10148000B8494B42CDE9003003460A46CDE9021087
:10149000014640F2DC50FFF783FFFFF732FA2D20C0
:1014A000B1494B42CDE9003003460A46CDE902106E
:1014B00001464FF4AF70FFF738FE7FBD7FB504469D
:1014C0002D216042CDE900410B466242CDE9020187
:1014D0002046FFF731FDFFF714FA23209E494B42C7
:1014E000CDE9003003460A46CDE90210014642F23A
:1014F0001070FFF755FF994840689849096888427D
:1015000000D001251BE096480068C0B9052001F015
:1015100012FD9348006890B9052001F00CFD904839
:10152000006860B900208D494860086000218B4840
:101530000161C160C1618161816241620025002D4C
:10154000E1D1232089494B42CDE9003003460A46C8
:10155000CDE9021001464FF49660FFF721FFFFF737
:10156000D0F92D2080494B42CDE9003003460A4690
:10157000CDE9021001464FF4AF70FFF7D6FD7FBDF5
:101580007FB504462D216042CDE900410B46624201
:10159000CDE902012046FFF7CFFCFFF7B2F9232087
:1015A0006D494B42CDE9003003460A46CDE90210B1
:1015B000014642F21070FFF7F3FE68484068674941
:1015C0000968884200D001251EE06548001D0068BA
:1015D000D0B9052001F0AFFC6148001D006898B942
:1015E000052001F0A8FC5E48001D006860B90020DD
:1015F0005A4948600860002158480161C160C161D2
:101600008161816241620025002DDED1232057498E
:10161000C8314B42CDE9003003460A46CDE90210FD
:1016200001464FF47A70FFF7BBFEFFF76AF92D20F1
:101630004D494B42CDE9003003460A46CDE9021040
:1016400001464FF4AF70FFF770FD7FBD2DE9F04FFD
:1016500085B005460126002D79D176E001F0C9FB61
:1016600000214348006805F03BFA6ED841494048E4
:10167000006805F035F968D8062001F05CFC01F03F
:10168000B8FB00213A48006805F02AFA5DD83949CC
:101690003748006805F024F957D801F0AAFB062066
:1016A00001F049FC34493248006805F019FA4CD879
:1016B00030492F48006805F013F946D82F492C48C7
:1016C000006805F03FFA834604F096FF07460022C3
:1016D0002B4B04F0A9FDCDE9020104F063FD0446A3
:1016E0002348006804F088FF07463A460B4625A0C9
:1016F00003F0C4FA214625A003F0C0FA4B22604251
:101700006142CDE90112CDE9030223462146C820FA
:101710000092FFF78EFCFFF7F4F8174914480068B1
:1017200005F0DEF906D81B491148006805F0D8F825
:1017300000D800261E2C02DA002C00DD0026002C2A
:1017400003DA14F11E0F00DD0026002E86D1012DD4
:101750007ED188E0E0030020F0D8FFFF4C0F00208E
:101760001481234224FAFFFFA2FEFFFF50FBFFFF7C
:10177000200F00200000C8430000F0410000484254
:1017800000000C4025660D0A0000000025640D0ACB
:101790000000000000008C42062001F0CCFB01F0AC
:1017A000F6FA0021FE48006805F09AF95BD8FD4979
:1017B000FB48006805F094F855D8062001F0BBFB03
:1017C00001F0E5FA0021F648006805F089F94AD8E9
:1017D000F449F348006805F083F844D8F249F0482A
:1017E000006805F07DF932D8EE49ED48006805F053
:1017F00077F82CD8ED49EA48006805F0A3F983464C
:1018000004F0FAFE0746EA4AEA4B04F00DFDCDE982
:10181000020104F0C7FC04464B20CDE90140CDE9AC
:10182000034063420246614200909620FFF701FCAC
:10183000FFF767F8E049DA48006805F051F906D883
:10184000DE49D748006805F04BF800D8002600E0D4
:101850000BE01E2C01DA00DD0026002C03DA14F167
:101860001E0F00DD0026002E96D1022D7ED1C2E192
:10187000062001F060FB01F0AFFA01F0BAFA002196
:10188000CF48006805F02CF9F1D8C649CC4800686B
:1018900005F026F8EBD8062001F04DFB01F09CFA8C
:1018A00001F0A7FA0021C748006805F019F9DED851
:1018B000BC49C448006805F013F8D8D8BB49C148F2
:1018C000006805F00DF927D2BF49BD48006805F052
:1018D00007F921D2BD49BB48006805F033F98346BA
:1018E00004F08AFE4FF03332B94BCDE9020104F027
:1018F0009BFC074604F056FC04465F2260426142AE
:10190000CDE90112CDE9030223462146C820009209
:10191000FFF78FFBFEF7F5FFAC49AA48006804F01B
:10192000DFFF64D2AB49A648006804F0D9FF5ED25D
:10193000A3480168A348006805F004F90746A649D2
:1019400005F0CEF823D29E480168A24805F0FAF8C7
:10195000834604F051FE07464FF033329C4B04F0AF
:1019600063FCCDE9020104F01DFC00E046E1044601
:101970005F20CDE90140CDE90340234602462146E0
:101980000090C820FFF755FBFEF7BBFF0EE05F227B
:1019900060426142CDE90112CDE903026342614236
:1019A000C8200092FFF745FBFEF7ABFF85480168B2
:1019B000864805F0C7F8834604F01EFE4FF0333228
:1019C000834BCDE9020104F02FFC074604F0EAFB4B
:1019D00004465F20CDE90140CDE903406342024661
:1019E00061420090C820FFF724FBFEF78AFF062023
:1019F00001F0A1FA01F0F0F901F0FBF97549704826
:101A0000006805F06DF87AD86F496D48006804F0F9
:101A100067FF74D8062001F08EFA01F0DDF901F0BD
:101A2000E8F96A496748006805F05AF867D85F49DD
:101A30006448006804F054FF61D86148D0F8009011
:101A40006048D0F800A06549504605F07BF807468D
:101A5000494604F045FF09D26149504604F0F8FDBB
:101A60000746494605F03CF800D200265146484654
:101A700005F036F81ED25146484605F063F8834615
:101A800004F0BAFD4A4A574BCDE9020104F0CCFB01
:101A9000074604F087FB04465F20CDE90140CDE90D
:101AA00003402346024621460090C820FFF7C1FAB2
:101AB000FEF727FF4946504605F012F81FD2494667
:101AC000504605F03FF8834604F096FD384A454BF2
:101AD000CDE9020104F0A8FB074604F063FB0446CD
:101AE0005F2261426042CDE9022104926342614279
:101AF000CDE90020C820FFF79CFAFEF702FF30482E
:101B0000D0F800902F48D0F800A05146484605F084
:101B100019F807462D4904F0E3FF1ED25146484606
:101B200005F010F8834604F067FD214A2D4BCDE9FE
:101B3000020104F079FB074604F034FB04465F2001
:101B4000CDE90140CDE903402346024621460090FD
:101B5000C820FFF76EFAFEF7D4FE4946504604F05F
:101B6000F1FF0746194904F0BBFF44D249465046ED
:101B700004F0E8FF834604F03FFD0D4A194BCDE920
:101B8000020104F051FB074604F00CFB04465F22FF
:101B900060426142CDE90112CDE90302634223E0D4
:101BA000000F00200000C8430000F0410000A042E8
:101BB000CDCCCCCCCCCC0C40000070420000C84254
:101BC000180F0020200F00200000B4420000204227
:101BD0003333F33F000048420000A04100002041A1
:101BE0000000A040CCCCEC3F6142C8200092FFF73F
:101BF00020FAFEF786FE002E7FF43AAE05B0BDE86F
:101C0000F08F0FB58FB000200D900B900A905F20E1
:101C1000079000200690FDE3FE480068F0B9FD48FB
:101C2000001D0068012819D1FA4808300068A8B9D9
:101C3000F8480C300068012810D16FF09F01079818
:101C4000CDE90110CDE903100B4602460090C820F3
:101C5000FFF7EFF9FEF755FE00200C90ED48006805
:101C6000002861D1EB48001D006801285CD1E948DB
:101C700008300068012857D1E6480C300068002879
:101C800052D1E5A002F0FAFF01F09AF80C2001F021
:101C900052F9E349E348006804F054FF019004F06E
:101CA000ABFC4FF06632E04BCDE9020104F0BCFA28
:101CB000CDE9040104F076FA0890D949D9480068C2
:101CC00004F00EFF17D8D949D648006804F008FE82
:101CD00011D808994942DDE90702CDE90120CDE993
:101CE0000310534202460090C8200899FFF7A1F95B
:101CF000FEF707FE10E06FF04F0150220798CDE984
:101D00000120CDE903100B46024650210090C82067
:101D1000FFF78FF9FEF7F5FD0C98032802D10D9817
:101D2000401C0D9001200C90BA48006801281CD17D
:101D3000B848001D0068C0B9B648083000680128DE
:101D400013D1B4480C30006878B9A0210798CDE9C8
:101D50000110CDE903100B4602460090C820FFF7A2
:101D600068F9FEF7CEFD02200C90AA480068012811
:101D70005CD1A848001D0068002857D1A54808304C
:101D80000068002852D1A3480C30006801284DD1CA
:101D900001F00AF80C2001F0CEF8A549A54800682A
:101DA00004F0D0FE019004F027FC4FF066329E4B09
:101DB000CDE9020104F038FACDE9040104F0F2F9AA
:101DC000089097499B48006804F08AFE16D8974906
:101DD0009848006804F084FD10D8DDE907104242FD
:101DE000CDE90121CDE903010A460346009159429C
:101DF000C820FFF71EF9FEF784FD0FE050214A428C
:101E00000798CDE90120CDE903100B46024649426F
:101E10000090C820FFF70DF9FEF773FD0C9801281C
:101E200002D10D98401C0D9003200C907948006859
:101E300000287DD17748001D00680028F9D1754839
:101E4000083000680028F4D172480C30006800287F
:101E5000EFD1192001F06FF86E4800680028E8D132
:101E60006C48001D00680028E3D16A48083000680B
:101E70000028DED167480C3000680028D9D119202D
:101E800001F059F8634800680028D2D16148001D6C
:101E900000680028CDD15F48083000680028C8D10C
:101EA0005C480C3000680028C3D10F9800287DD111
:101EB00019206149CDE9001003464A42CDE90210DC
:101EC00001461046FFF776F8FEF71BFD192215991B
:101ED0001798CDE900121346CDE902021921129A92
:101EE0001098FFF75DFA55484068544909688842E0
:101EF00001D00120099030E04648006801282CD12B
:101F00004448001D0068012827D10A2001F013F879
:101F100040480068012820D13E48001D0068012883
:101F20001BD10A2001F007F83A480068012800E0B8
:101F300070E112D13748001D006801280DD1002042
:101F40003E494860086000213C480161C160C161B0
:101F50008161816241620020099009980028CBD1FB
:101F60001E206FF0C701CDE900100346C822CDE95D
:101F7000021001461046FFF713FAFEF7C2FC2320B9
:101F80006FF0C701CDE900100346C822CDE9021069
:101F900001461046FFF704FAFEF7B3FC28206FF065
:101FA000C701CDE900100346C82200E04FE0CDE9AB
:101FB000021001461046FFF7F3F9FEF7A2FC2B20B2
:101FC0006FF0C701CDE900100346C822CDE9021029
:101FD00001461046FFF7E4F9FEF793FC2D2018495F
:101FE000CDE9001003464A42CDE9021001461046F1
:101FF000FFF7D6F9FEF739FD04200C902D2011498A
:10200000CDE9001003464A42CDE9021001461046D0
:102010001AE0000004812342D7F3D2C60D0A000063
:102020000000DC42100F00206666164000007A4374
:102030000000E642080F002090E8FFFF4C0F002050
:10204000A8E4FFFFA2FEFFFFFFF76FF894E30F98ED
:1020500001287DD1192041F27071CDE900100346AD
:102060004A42CDE9021001461046FEF7A3FFFEF7F3
:1020700048FC192215991798CDE900121346CDE9AD
:1020800002021921129A1098FFF78AF9F84840685D
:10209000F7490968884201D0012009902EE0F548EF
:1020A000006801282AD1F348001D0068012825D1C5
:1020B0000A2000F040FFEF48006801281ED1ED48DB
:1020C000001D0068012819D10A2000F034FFE948FA
:1020D0000068012812D1E748001D006801280DD1D1
:1020E0000020E349486008600021E1480161C160C7
:1020F000C1618161816241620020099009980028D4
:10210000CDD11E20C821CDE9001003464A42CDE9B9
:10211000021001461046FFF743F9FEF7F2FB2320B9
:10212000C821CDE9001003464A42CDE9021001461C
:102130001046FFF735F9FEF7E4FB2820C821CDE96A
:10214000001003464A42CDE902100146104600E065
:1021500030E0FFF725F9FEF7D4FB2B20C821CDE9AD
:10216000001003464A42CDE9021001461046FFF72F
:1021700017F9FEF7C6FB2D2041F65831CDE90010C6
:1021800003464A42CDE9021001461046FFF708F91E
:10219000FEF7DBFB04200C902D204FF4AF71CDE94E
:1021A000001003464A42CDE9021001461046FEF7F0
:1021B000BCFFE1E20F9802282CD11920AE49CDE9ED
:1021C000001003464A42CDE9021001461046FEF7D0
:1021D000F1FEFEF796FB192215991798CDE900122A
:1021E0001346CDE902021921129A1098FFF7D8F888
:1021F00004200C90FEF785FB19206FF0F901CDE962
:1022000000100346FA22CDE9021001461046FEF7FF
:10221000CAFFB1E2974808380068012839D19548CB
:10222000001F0068A8BB9348006890BB9148001D40
:10223000006870BB0A2000F07EFE8E4808380068F7
:10224000012826D18B48001F006810BB8948006810
:10225000F8B98848001D0068D8B90698052818DA2A
:1022600038210798CDE90110CDE903100B4602464D
:102270000090C820FEF7DDFEFEF743FB0C9808280F
:1022800002D10B98401C0B9005200C900698401C26
:102290000690784808380068D8BB7648001F006868
:1022A000012836D17348006898BB7248001D006849
:1022B00078BB0A2000F03FFE6E480838006840BB3B
:1022C0006C48001F0068012823D16A48006800BBE1
:1022D0006848001D0068E0B90698052819DA6FF013
:1022E00037010798CDE90110CDE903100B460246EE
:1022F0000090C820FEF79DFEFEF703FB0C98072810
:1023000002D10A98401C0A9006200C900698401CA6
:102310000690584808380068E8BB5648001F006817
:10232000C8BB54480068012835D15248001D0068D8
:1023300088BB0A2000F0FFFD4E480838006850BBFB
:102340004C48001F006830BB4A480068012822D171
:102350004848001D0068F0B9069805281BDA47A018
:1023600002F08CFC38210798CDE90110CDE903106B
:102370000B4602460090C820FEF75BFEFEF7C1FA4E
:102380000C98062802D10A98401C0A9007200C904D
:102390000698401C0690374808380068D8BB354876
:1023A000001F0068B8BB33480068A0BB3148001D5F
:1023B0000068012832D10A2000F0BDFD2D48083800
:1023C000006840BB2B48001F006820BB29480068FC
:1023D00008BB2848001D006801281FD10698052861
:1023E0001CDA6FF037010798CDE90110CDE9031031
:1023F0000B4602460090C820FEF71BFEFEF781FA4E
:102400000C98052802D10B98401C0B9008200C90CA
:10241000069801E083E001E0401C0690069805283C
:102420007DD10F9800287BD119201749CDE90010E4
:1024300003464A42CDE9021001461046FEF7BAFDB6
:10244000FEF75FFA192215991798CDE90012134685
:10245000CDE902021921129A1098FEF7A1FF044853
:10246000406803490968884201D0012009903CE096
:102470004C0F00200C812342D8F5FFFFD0E8D2AAF0
:10248000C4E6D0FD0D0A000090E8FFFFBC480068DC
:1024900001282AD1BA48001D0068012825D10A2048
:1024A00000F049FDB648006801281ED1B448001D5F
:1024B0000068012819D10A2000F03DFDB0480068ED
:1024C000012812D1AE48001D006801280DD100205E
:1024D000AC49486008600021AA480161C160C1613F
:1024E0008161816241620020099009980028CDD164
:1024F0001E206FF0C701CDE900100346C822CDE9C8
:10250000021001461046FEF74BFFFEF7FAF92320B2
:102510006FF0C701CDE900100346C82201E029E1B0
:1025200042E0CDE9021001461046FEF739FFFEF702
:10253000E8F928206FF0C701CDE900100346C82252
:10254000CDE9021001461046FEF72AFFFEF7D9F941
:102550002B206FF0C701CDE900100346C822CDE95A
:10256000021001461046FEF71BFFFEF7CAF92D20A8
:102570008549CDE9001003464A42CDE902100146E3
:102580001046FEF70DFFFEF770FA04200C902D2088
:102590007E49CDE9001003464A42CDE902100146CA
:1025A0001046FEF7C2FDE7E00F9801287ED1192002
:1025B00041F27071CDE9001003464A42CDE90210A4
:1025C00001461046FEF7F6FCFEF79BF91922159915
:1025D0001798CDE900121346CDE902021921129A8B
:1025E0001098FEF7DDFE6748406866490968884232
:1025F00001D00120099031E06148083000680128CD
:102600002CD15F480C300068012827D10A2000F047
:1026100092FC5B480830006801281FD158480C30F4
:10262000006801281AD10A2000F085FC54480830BF
:102630000068012812D152480C30006801280DD1E1
:10264000002050494860086000214E480161C16087
:10265000C16181618162416200200990099800286E
:10266000CAD11E20C821CDE9001003464A42CDE957
:10267000021001461046FEF793FEFEF742F92320B2
:10268000C821CDE9001003464A42CDE902100146B7
:102690001046FEF785FEFEF734F92820C821CDE963
:1026A000001003464A42CDE9021000E032E0014644
:1026B0001046FEF775FEFEF724F92B20C821CDE960
:1026C000001003464A42CDE9021001461046FEF7CB
:1026D00067FEFEF716F92D2041F65831CDE90010BE
:1026E00003464A42CDE9021001461046FEF758FE65
:1026F000FEF72BF904200C902D204FF4AF71CDE99B
:10270000001003464A42CDE9021001461046FEF78A
:102710000CFD31E00F9802282CD119201C49CDE97D
:10272000001003464A42CDE9021001461046FEF76A
:1027300041FCFEF7E6F8192215991798CDE9001229
:102740001346CDE902021921129A1098FEF728FECD
:1027500004200C90FEF7D5F819206FF0C701CDE9E1
:1027600000100346C822CDE9021001461046FEF7CC
:102770001AFD01E0FFF750BA00BF13B000BD000022
:10278000048123424C0F0020A8E4FFFFA2FEFFFFBC
:10279000D8F5FFFF08B50121702001F069F802208B
:1027A000ADF8000010208DF8030003208DF8020022
:1027B0006946FE4800F0A0FD0221FC4800F04BFEF7
:1027C0000120ADF800006946F94800F095FD0121AF
:1027D000F74800F040FE0220ADF800006946F548D9
:1027E00000F08AFD0221F34800F035FE0820ADF824
:1027F00000006946ED4800F07FFD0821EB4800F03D
:102800002AFE1020ADF800006946E84800F074FD8B
:102810001021E64800F01FFE08BD1FB50121702001
:1028200001F026F80120ADF8000028208DF8030003
:102830006946DE4800F060FD0220ADF80000282067
:102840008DF803006946DA4800F056FD0420ADF823
:10285000000028208DF803006946D64800F04CFDA2
:102860002020ADF8000028208DF803006946CF48ED
:1028700000F042FD4020ADF8000028208DF8030054
:102880006946CA4800F038FD0121084600F0F0FF13
:102890000021042000F046FE0120029000208DF867
:1028A0000C0010208DF80D0001208DF80E0002A8FC
:1028B00002F062F90121032000F034FE02200290B0
:1028C00002A802F059F90221084600F02BFE04206C
:1028D000029002A802F050F90521042000F022FE27
:1028E0002020029002A802F047F90621042000F0FF
:1028F00019FE4020029002A802F03EF906208DF851
:10290000040000208DF8050001208DF806008DF8E8
:10291000070001A800F027FC07208DF80400002024
:102920008DF8050001208DF806008DF8070001A83C
:1029300000F019FC08208DF8040000208DF8050037
:1029400001208DF806008DF8070001A800F00BFCAF
:1029500017208DF8040000208DF8050001208DF867
:1029600006008DF8070001A800F0FDFB1FBD2DE952
:10297000FF5F012002F066F901284CD18E48006803
:1029800068BB8E48006803F037FE82468B468C4950
:10299000888C03F036FC804600228A4B03F0AAFAAA
:1029A00004460D468848006803F02BFC0646224684
:1029B0002B4603F0F7F952465B46CDE9000103F0E0
:1029C00031FDCDE9020103F0BBF97C4908607F4984
:1029D0007A48006803F0B8FF7D49086018E078493C
:1029E000888C03F00EFC80460022764B03F082FABE
:1029F00006460F467448006803F003FC82463246E0
:102A00003B4603F0CFF9044603F09AF96B4908609E
:102A1000012002F028F9BDE8FF9F2DE9FF5F0220A9
:102A200002F010F901284CD16A48006868BB6A4876
:102A3000006803F0E1FD82468B466149888C03F013
:102A4000E0FB804600225F4B03F054FA04460D463B
:102A50005D48006803F0D5FB064622462B4603F08E
:102A6000A1F952465B46CDE9000103F0DBFCCDE95C
:102A7000020103F065F95849086054495648006856
:102A800003F062FF5549086018E04D49888C03F057
:102A9000B8FB804600224B4B03F02CFA06460F464B
:102AA0004948006803F0ADFB824632463B4603F0DE
:102AB00079F9044603F044F947490860022002F01E
:102AC000D2F8BDE8FF9F2DE9FF5F042002F0BAF8BD
:102AD00001284CD14248006868BB4248006803F0B6
:102AE0008BFD82468B463649888C03F08AFB8046F4
:102AF0000022344B03F0FEF904460D4632480068CC
:102B000003F07FFB064622462B4603F04BF9524664
:102B10005B46CDE9000103F085FCCDE9020103F03D
:102B20000FF93049086029492E48006803F00CFF6E
:102B30002D49086018E02249888C03F062FB80462A
:102B40000022204B03F0D6F906460F461E480068C7
:102B500003F057FB824632463B4603F023F9044616
:102B600003F0EEF81F490860042002F07CF8BDE88D
:102B7000FF9F2DE9FF5F202002F064F8012872D149
:102B80000D481430006898BB1848006803F034FD05
:102B9000CDE902010A49888C03F033FB804600220C
:102BA000084B03F0A7F906460F4622E00018014043
:102BB000001401400010014000012342040F0020D6
:102BC0000010004000408F40FC0E002000002A430F
:102BD000000F0020048122420C0F0020080F00206B
:102BE00008012242140F0020100F00201C0F0020AB
:102BF0001BE0A448006803F004FB32463B46CDE9E5
:102C0000000103F0CFF80446DDE9022303F00AFCDB
:102C1000824603F095F89C4908609C499A480068F0
:102C200003F092FE9A49086018E09A49888C03F0F4
:102C3000E8FA82460022984B03F05CF906460F46FC
:102C40009048006803F0DDFA804632463B4603F0C8
:102C5000A9F8044603F074F88B490860202002F0BC
:102C600002F852E0FFE7402001F0ECFF01284CD1D0
:102C70008A48006868BB8A48006803F0BDFC0446C7
:102C80000D468449888C03F0BCFA0022824BCDE9C2
:102C9000000103F02FF9804689467A48006803F066
:102CA000B0FA064642464B4603F07CF8824622467E
:102CB0002B4603F0B7FBCDE9020103F041F8784958
:102CC000086072497648006803F03EFE7549086066
:102CD00018E07049888C03F094FA064600226E4B87
:102CE00003F008F904460D466648006803F089FAC7
:102CF000804622462B4603F055F8824603F020F822
:102D000067490860402001F0AEFFBDE8FF9F7FB536
:102D100005460C460121102000F0B7FDADF8085023
:102D2000ADF804400020ADF80A00ADF8060001A996
:102D3000584800F0D5FE01221146564801F047FAE6
:102D400036208DF8000000208DF8010001208DF85C
:102D500002008DF80300684600F005FA01214D4895
:102D600001F01AFAFFF759FDFFF714FD7FBD10B50A
:102D70000121484801F0D9FC40B10121454801F04A
:102D8000E5FC40480068401C3E49086010BD10B595
:102D9000012042496C310860142000F0A8F800209E
:102DA0004149C1F8840110BD10B501203F490860B8
:102DB000142000F09CF800203D49C1F8800110BDAE
:102DC00010B501203B490860142000F090F8002065
:102DD0003949C1F8840110BD10B501202F49743163
:102DE0000860142000F083F800202F49C1F88C01FE
:102DF00010BD10B50120294978310860142000F079
:102E000076F800202849C1F8900110BD2DE9F84F4F
:102E100005460E4600242746A046A14600BF10E006
:102E200055F8241055F8270003F05AFE00D2274623
:102E300055F8241055F8280003F052FD00D2A046A2
:102E4000641CB442ECDB002406E055F8241048462C
:102E500003F0FEFB8146641CB442F6DBB01E03F0B7
:102E600027FD009055F82710484603F06BFE834677
:102E700055F8281003F066FE8246009903F056FCD0
:102E8000BDE8F88FFC0E00201C0F002000002A4334
:102E9000180F00200010004000408F40180123420E
:102EA000240F0020200F00200000234280812242B6
:102EB00000802242840122420000224210B56FF0BD
:102EC000040000F09AF92E4800682E49B0FBF1F09A
:102ED0002D4908700846007800EB4001C1EBC01096
:102EE0004FF6FF7101EAC0002849088010BD014675
:102EF000254A12784A434FF0E0235A6100229A6132
:102F00001A46126942F001021A6100BF4FF0E02236
:102F1000106900F001021AB100F48032002AF5D0E5
:102F20004FF0E022126922F001024FF0E0231A6113
:102F300000229A6170470146144A12884A434FF0B2
:102F4000E0235A6100229A611A46126942F0010296
:102F50001A6100BF4FF0E022106900F001021AB1BF
:102F600000F48032002AF5D04FF0E022126922F0FE
:102F700001024FF0E0231A6100229A6170470000BD
:102F80000000002000127A00280F00202A0F0020E5
:102F900000BF5E49098801F080010029F9D0C0F323
:102FA00008015A4A121D1180704700BF5748008817
:102FB00000F020000028F9D05448001D0088C0F31C
:102FC0000800704700BFFEE710B503460C461846E0
:102FD000FFF7DEFF10BD10B50446FFF7E6FF03461E
:102FE000FFF7D6FF10BD00B503461846FFF7D0FF28
:102FF00000BD01464FF0FF30704710B586B0044663
:10300000012144F2040000F033FC4FF40070ADF8ED
:10301000140003208DF8160018208DF8170005A95C
:103020003B4800F069F94FF48060ADF814000420CB
:103030008DF8170005A9364800F05EF925208DF8B7
:10304000000003208DF801008DF8020001208DF8AA
:103050000300684600F087F801940020ADF80800EE
:10306000ADF80A00ADF80C00ADF810000C20ADF87A
:103070000E0001A9254801F0B0FB002240F22551C5
:10308000224801F042FC0121204801F032FC06B048
:1030900010BD10B540F225511C4801F01BFD10B3C6
:1030A0001A4801F097FCC4B21A48008800F40040A6
:1030B000C8B91848008800F4804060B10A2C03D0D9
:1030C00000201449088020E01248008840F40040A5
:1030D0001049088019E00D2C06D10E48008840F4F4
:1030E00080400C49088010E00A480088C0F30D00B9
:1030F00009490C5407480088401C064908800846C6
:103100000088C72801DD0020088010BD003801407C
:1031100000080140340F00207C0F00200948804740
:1031200009480047FEE7FEE7FEE7FEE7FEE7FEE7A9
:10313000FEE7FEE7FEE7FEE704480549054A064BC1
:1031400070470000E706000831010008A8100020C1
:10315000A8160020A8120020A8120020314901431F
:10316000314A1160704770B5002100230F22C478E6
:1031700004B32D4C246804F4E064C4F5E064210A2F
:10318000C1F10403CA40447804FA03F1847814407E
:1031900021430901254C0678A155047804F01F0548
:1031A0000124AC4005786D11AD0005F1E025C5F8AE
:1031B000004109E0047804F01F050124AC401C4DD7
:1031C0000678761145F8264070BD1A4A0A40024337
:1031D000154B1B1F1A60704739B1134A121D126834
:1031E0000243114B1B1D1A6006E00F4A121D1268A4
:1031F00082430D4B1B1D1A607047042808D14FF005
:10320000E021096941F004014FF0E022116107E07B
:103210004FF0E021096921F004014FF0E022116133
:10322000704700000000FA050CED00E000E400E04B
:1032300080E100E080FFFF1F10B50446CC488442C7
:1032400008D10121042000F02DFB0021042000F012
:1032500029FB46E0C748844208D10121082000F03C
:1032600021FB0021082000F01DFB3AE0C248844207
:1032700008D10121102000F015FB0021102000F0E2
:1032800011FB2EE0BD48844208D10121202000F02E
:1032900009FB0021202000F005FB22E0B848844211
:1032A00008D10121402000F0FDFA0021402000F06B
:1032B000F9FA16E0B348844208D10121802000F0D9
:1032C000F1FA0021802000F0EDFA0AE0AE488442D5
:1032D00007D10121801500F0E5FA0021A01500F0CA
:1032E000E1FA10BD10B50121084600F0DBFA00211B
:1032F000012000F0D7FA10BD2DE9F041024600256B
:103300000026002000230024002791F803C00CF0C1
:103310000F0591F803C00CF0100CBCF1000F03D0A6
:1033200091F802C04CEA050591F800C0BCF1000F0D
:1033300031D0146800202BE04FF0010C0CFA00F3A0
:10334000B1F800C00CEA03069E4220D183004FF082
:103350000F0C0CFA03F7BC4305FA03FC4CEA040417
:1033600091F803C0BCF1280F06D14FF0010C0CFA04
:1033700000FCC2F814C00AE091F803C0BCF1480F89
:1033800005D14FF0010C0CFA00FCC2F810C0401C33
:103390000828D1D31460B1F800C0BCF1FF0F34DDB0
:1033A000546800202EE000F1080C4FF0010808FAE4
:1033B0000CF3B1F800C00CEA03069E4221D1830051
:1033C0004FF00F0C0CFA03F7BC4305FA03FC4CEA70
:1033D000040491F803C0BCF1280F05D100F1080CDA
:1033E00008FA0CF8C2F8148091F803C0BCF1480F39
:1033F00007D100F1080C4FF0010808FA0CF8C2F8E8
:103400001080401C0828CED35460BDE8F0814FF6F0
:10341000FF710180022181700421C1707047024652
:10342000002093680B400BB1012000E000207047A2
:103430000146886880B2704702460020D3680B407E
:103440000BB1012000E0002070470146C86880B23F
:10345000704701617047416170470AB1016100E046
:1034600041617047C16070474FF480320A43826106
:103470008161826182698269704702460020434B04
:1034800018684FF68073184040EA021008433F4B1B
:10349000186070473E49C8617047F0B50A4600237E
:1034A00000240021002500F00046B6F1004F02D1B3
:1034B000364EF16901E0354E7168C0F3034583B2C1
:1034C00000F44016B6F5401F08D121F070612F4E70
:1034D000766826F070662D4F7E6012E000F480164C
:1034E000B6F5801F06D1032606FA05F4A14341F084
:1034F000706106E0460D360103FA06F6B14341F06D
:10350000706122B1460D360103FA06F6314300F030
:103510000046B6F1004F02D11C4EF16101E01B4E96
:103520007160F0BD30B500228B071C0F0F2303FA2A
:1035300004F2164B08338C1053F824309343134C89
:1035400008348D1044F8253023468C1053F824306D
:103550008C07240F00FA04F423430C4C08348D101C
:1035600044F8253030BD0A49DC310860704700005E
:1035700000080140000C014000100140001401400F
:1035800000180140001C01400020014000000140E3
:1035900000002042DF48006840F00100DD4908607B
:1035A00008464068DC490840DA4948600846006837
:1035B000DA490840D74908600846006820F48020AE
:1035C00008600846406820F4FE0048604FF41F0081
:1035D00088607047CF49096821F48031CD4A116075
:1035E0001146096821F480211160B0F5803F03D0B5
:1035F000B0F5802F0ED106E0C649096841F480314C
:10360000C44A116007E0C349096841F4A021C14AD6
:10361000116000E000BF00BF704710B501460022F6
:10362000002300204A11012A02D1BA4C236806E087
:10363000022A02D1B74C236A01E0B64C636A01F05A
:103640001F02012494401C400CB1012000E0002026
:1036500010BD38B5002000900024002500BF3120A7
:10366000FFF7DBFF05460098401C00900098B0F57E
:10367000A06F01D0002DF2D03120FFF7CEFF08B1AE
:10368000012400E00024204638BD01460020A14A64
:10369000106820F0F80040EAC10010607047A049AF
:1036A00008607047024600209A4B586820F47C104E
:1036B00042EA01031843974B5860704798490866DF
:1036C000704701460020934A506820F003000843E9
:1036D000506070478F48406800F00C00704701460A
:1036E00000208C4A506820F0F0000843506070477A
:1036F00001460020874A506820F4E060084350608B
:10370000704701460020834A506820F4605040EA28
:10371000C1005060704729B17E4A527A02437D4B06
:103720005A7204E07B4A527A82437A4B5A7270474B
:103730007B49D8310860704701460020754A5068BF
:1037400020F440400843506070470021714A203205
:103750001170704A82F82010012802D004280AD182
:1037600004E001216B4A2032117005E00521694A0D
:103770002032117000E000BF00BF70476949086047
:1037800070476449096A0143624A1162704765499A
:1037900044390860704730B500210022002400231E
:1037A0005C4D6D6805F00C0121B1042905D0082994
:1037B00023D105E05C4D056022E05B4D05601FE014
:1037C000544D6D6805F47012524D6D6805F48034E7
:1037D000022505EB92421CB9544D554305600BE0A0
:1037E0004C4D6D6805F400351DB1504D55430560D5
:1037F00002E04D4D5543056002E04B4D056000BFB2
:1038000000BF444D6D6805F0F0010909484D6B5C3F
:103810000568DD4045603F4D6D6805F4E061090ACB
:10382000434D6B5C4568DD4085603A4D6D6805F43D
:103830006051C90A3E4D6B5C4568DD40C560354D41
:103840006D6805F44041890B3A4D6B5CC568B5FB6A
:10385000F3F5056130BD29B12E4A526902432D4B63
:103860005A6104E02B4A526982432A4B5A617047DD
:1038700029B1284A92690243264B9A6104E0254AFD
:1038800092698243234B9A61704729B1214AD269D8
:103890000243204BDA6104E01E4AD26982431D4B89
:1038A000DA61704729B11B4AD2680243194BDA60CA
:1038B00004E0184AD2688243164BDA60704729B197
:1038C000144A12690243134B1A6104E0114A126947
:1038D0008243104B1A6170471249403908607047A3
:1038E0000F49C86470470B49C87170470948406A5E
:1038F00040F0807007494862704701460020054A41
:1039000092680A400AB1012000E000207047014996
:1039100088727047001002400000FFF8FFFFF6FEBB
:10392000000042428004424200127A0000093D0039
:10393000360F0020460F002010B50446FE48844292
:1039400008D10121C014FFF7ADFF0021E014FFF7FB
:10395000A9FFC4E0B4F1804F08D101210846FFF768
:10396000AEFF00210120FFF7AAFFB8E0F348844230
:1039700008D101210220FFF7A2FF00210220FFF75A
:103980009EFFACE0EE48844208D101210420FFF7FD
:1039900096FF00210420FFF792FFA0E0E94884424F
:1039A00008D101210820FFF78AFF00210820FFF736
:1039B00086FF94E0E448844208D101211020FFF7FB
:1039C0007EFF00211020FFF77AFF88E0DF48844265
:1039D00008D101212020FFF772FF00212020FFF7EE
:1039E0006EFF7CE0DA48844208D101214014FFF7E1
:1039F00059FF00216014FFF755FF70E0D54884425D
:103A000009D10121C804FFF74DFF00214FF4002028
:103A1000FFF748FF63E0D048844209D1012108053F
:103A2000FFF740FF00214FF48010FFF73BFF56E007
:103A3000CA48844209D101214805FFF733FF00211C
:103A40004FF40010FFF72EFF49E0C548844208D12B
:103A500001214020FFF733FF00214020FFF72FFF17
:103A60003DE0C048844208D101218020FFF727FFB4
:103A700000218020FFF723FF31E0BB48844208D1BA
:103A800001218015FFF71BFF0021A015FFF717FF8D
:103A900025E0B648844209D101210804FFF702FF5E
:103AA00000214FF48030FFF7FDFE18E0B04884425B
:103AB00009D101214804FFF7F5FE00214FF4003041
:103AC000FFF7F0FE0BE0AB48844208D101218804E7
:103AD000FFF7E8FE00214FF48020FFF7E3FE10BD62
:103AE00000220288944B98420ED0994B98420BD0FA
:103AF000B0F1804F08D0914B984205D0904B98423E
:103B000002D0904B984204D14FF68F731A404B88E5
:103B10001A438D4B984207D08C4B984204D04FF6F5
:103B2000FF431A40CB881A4302808B8883850B8819
:103B30000385814B98420BD0854B984208D08B4B24
:103B4000984205D08A4B984202D08A4B984201D1C4
:103B50000B7A038601238382704770B5002400220C
:103B60000023058C4FF6FE7635400584028C838851
:103B7000048B4FF68F752C40B51E2C400D882C43BE
:103B8000751E2A400D892A434D882A436A4DA84252
:103B90000BD06F4DA84208D0744DA84205D0744D8B
:103BA000A84202D0734DA84213D14FF6F7752A40B0
:103BB0004D892A434FF6FB752A408D882A434FF6DC
:103BC000FF652B404FF6FF552B408D892B43CD8948
:103BD0002B4383800483CD888586028470BD70B5B5
:103BE000002400220023058C4FF6EF763540058433
:103BF000028C8388048B48F6FF752C404FF6FF45F6
:103C00002C400D884FF6FF7606EA05252C434FF62B
:103C1000DF752A400D8906EA05152A434D8806EA14
:103C200005152A43444DA84202D0494DA8421DD152
:103C30004FF67F752A404D894FF6FF7606EA051547
:103C40002A434FF6BF752A408D8806EA05152A4398
:103C50004FF6FF352B404FF2FF752B408D8906EA5A
:103C600085052B43CD8906EA85052B438380048394
:103C7000CD880587028470BD70B500240022002322
:103C8000058C4FF6FF6635400584028C8388848B53
:103C90004FF68F752C404FF6FC752C400D882C4349
:103CA0004FF6FF552A400D894FF6FF7606EA0525A7
:103CB0002A434D8806EA05252A431F4DA84202D013
:103CC000234DA8421DD14FF2FF752A404D894FF672
:103CD000FF7606EA05252A434FF6FF352A408D88F0
:103CE00006EA05252A434EF6FF752B404DF6FF7573
:103CF0002B408D8906EA05152B43CD8906EA05156B
:103D00002B4383808483CD888587028470BD70B502
:103D1000002200230024058C4EF6FF7635400584F2
:103D2000038C8488828B48F6FF752A404FF6FF4546
:103D30002A400D8820E00000002C014000040040D3
:103D400000080040000C004000100040001400403B
:103D500000340140004C014000500140005401403B
:103D600000180040001C00400020004000400140BE
:103D700000440140004801404FF6FF7606EA052561
:103D80002A434DF6FF752B400D8906EA05352B4376
:103D90004D8806EA05352B43FA4DA84202D0FA4D6C
:103DA000A84208D14BF6FF752C408D894FF6FF765F
:103DB00006EA85152C4384808283CD88A0F8405084
:103DC000038470BD828B4FF2FF331A408283828B53
:103DD0004FF6FF7303EA01231A4382837047F0B55D
:103DE0000C461546002200210026078C4EF6FF7C6B
:103DF00007EA0C070784828B018C4FF6FF7707EAEE
:103E0000043640F6FF473A404FF6FF7707EA0527AA
:103E10003A434FF6FF7707EA03373A43D94FB842A0
:103E20000ED0D94FB8420BD0B0F1804F08D0D74F49
:103E3000B84205D0D64FB84202D0D64FB84206D1CC
:103E40004DF6FF77394046F48057394305E047F691
:103E5000FF57394044F48057394382830184F0BDD1
:103E6000828B4FF6F3731A408283828B0A438283DC
:103E70007047F0B50C461546002200210026078C3D
:103E80004FF6FF6C07EA0C070784828B018C4FF614
:103E9000FF7707EA04264FF60C773A404FF6FF7794
:103EA00007EA03172F433A43B64FB8420ED0B64F36
:103EB000B8420BD0B0F1804F08D0B44FB84205D013
:103EC000B34FB84202D0B34FB84206D14FF6FF57B6
:103ED000394046F48077394305E04FF2FF573940C7
:103EE00044F48077394382830184F0BD028B4FF222
:103EF000FF331A400283028B4FF6FF7303EA01235C
:103F00001A4302837047F0B50C4615460022002183
:103F10000026078C4FF6EF7C07EA0C070784028B1C
:103F2000018C4FF6FF7707EA041640F6FF473A4048
:103F30004FF6FF7707EA03373A434FF6FF7707EA72
:103F400005273A438F4FB8420ED08F4FB8420BD05F
:103F5000B0F1804F08D08D4FB84205D08C4FB84299
:103F600002D08C4FB84206D14FF6DF77394046F089
:103F70001007394305E04FF65F77394044F01007EA
:103F8000394302830184F0BD028B4FF6F3731A406C
:103F90000283028B0A4302837047F0B50C46154634
:103FA00000220021068C4FF6FE773E400684028BED
:103FB000018C4FF60C7632407E1C06EA03162E4327
:103FC0003243704EB0420ED06F4EB0420BD0B0F1C3
:103FD000804F08D06D4EB04205D06D4EB04202D039
:103FE0006C4EB04206D14FF6FD76314044F00106EA
:103FF000314305E04FF6F576314044F00106314398
:1040000002830184F0BD70B505460C465D488542CB
:104010000ED05D4885420BD0B5F1804F08D05B488B
:10402000854205D05A48854202D05A48854200D17F
:1040300000E000BF208850B92389A2886188284603
:10404000FFF7ABFFE1882846FFF79EFF25E02088B9
:1040500004280AD12389A28861882846FFF753FFE4
:10406000E1882846FFF742FF17E0208808280AD198
:104070002389A28861882846FFF7FBFEE18828464D
:10408000FFF7EEFE09E02389A28861882846FFF742
:10409000A6FEE1882846FFF795FE70BD2DE9F041A8
:1040A00005460C4600260127608808B9022600E074
:1040B0000026A088012801D1022700E001272088DE
:1040C000A0B92389A28861882846FFF766FFE188A6
:1040D0002846FFF759FF23893A4631462846FFF71D
:1040E00012FFE1882846FFF701FF13E02389A28829
:1040F00061882846FFF707FFE1882846FFF7F6FEAC
:1041000023893A4631462846FFF747FFE18828468B
:10411000FFF73AFFBDE8F0810A884B881A438B8885
:104120001A43CB881A430B891A434B891A438B894C
:104130001A43A0F8442070474FF6FF718180002198
:104140000180C1804180017270470021018041805F
:104150008180C180018141818181C18170470021BD
:1041600001804180012181800021C180018170474F
:104170000021018041808180C18001814181818154
:1041800070470000002C0140003401400004004052
:1041900000080040000C004021B1028842F00102FA
:1041A000028004E002884FF6FE731A4002807047D6
:1041B00031B1B0F8442042F40042A0F8442005E0B8
:1041C000B0F84420C2F30E02A0F8442070471AB1A0
:1041D00083890B43838102E083898B43838170470A
:1041E0008182704741EA0203A0F8483070471AB153
:1041F00083890B43838102E083898B4383817047EA
:1042000001894FF6F8721140018170470A4600217A
:1042100001894FF68F73194011430181704730B502
:1042200004460D4629462046FFF7F0FF208940F05E
:104230000700208130BD2DE9F04104460D461646A9
:104240001F46602D06D13B46012231462046FFF72E
:104250005AFE05E03B46012231462046FFF79DFE0F
:1042600029462046FFF7D2FF208940F00700208131
:10427000BDE8F08130B50C4600210189C9B24FF686
:10428000FF7505EA0325154325432943018130BD08
:104290002DE9F04105460E46174698460024434650
:1042A0003A4631462846FFF7E5FF2C894FF6F8706D
:1042B000044044F007044FF68F70044044F070044B
:1042C0002C81BDE8F081F0B504460D4616461F4628
:1042D0003B46324629462046FFF7CCFF208940F472
:1042E00080402081F0BD0185828270470A4600210E
:1042F00001884FF68F731940114301807047F0B564
:104300000C4615461E460021002200230189028B1F
:10431000038C4FF6F877394021434FF6FC473A407B
:1043200040F201173A434FF6DD773B404FF6FF77F7
:1043300007EA06172F433B43018102830384F0BD44
:104340000A460021018B4FF68F73194011430183F8
:1043500070470A460021018B48F6FF7319404FF65B
:10436000FF7303EA02231943018370470A460021C1
:10437000818B4FF68F7319401143818370470A4632
:104380000021818B48F6FF7319404FF6FF7303EA53
:10439000022319438183704721B1028842F08002D1
:1043A000028004E002884FF67F731A400280704753
:1043B00021B1828842F00402828004E082884FF6B4
:1043C000FB731A408280704721B1828842F0080254
:1043D000828004E082884FF6F7731A40828070472B
:1043E00021B1828842F00102828004E082884FF687
:1043F000FE731A40828070470A460021018B4FF6F7
:10440000F77319401143018370470A460021018B5D
:104410004FF2FF7319404FF6FF7303EA022319436B
:10442000018370470A460021818B4FF6F7731940CC
:104430001143818370470A460021818B4FF2FF733D
:1044400019404FF6FF7303EA022319438183704733
:104450000A460021018B4FF6FB731940114301837B
:1044600070470A460021018B4FF6FF3319404FF683
:10447000FF7303EA02231943018370470A460021B0
:10448000818B4FF6FB7319401143818370470A46B5
:104490000021818B4FF6FF3319404FF6FF7303EA7B
:1044A00002231943818370470A460021018B4FF68E
:1044B0007F7319401143018370470A460021018B25
:1044C000C1F30E014FF6FF7303EA02231943018380
:1044D00070470A460021818B4FF67F7319401143C4
:1044E000818370470A460021818BC1F30E014FF68C
:1044F000FF7303EA02231943818370470A460021B0
:10450000018C4FF6FD7319401143018470470A4630
:104510000021018C4FF6F773194011430184704755
:104520000A460021018C4FF6DF7319404FF6FF73E6
:1045300003EA02131943018470470A460021018CE3
:104540004FF67F7319404FF6FF7303EA02131943C6
:10455000018470470A460021018C4FF6FF53194031
:104560004FF6FF7303EA02231943018470470A469A
:104570000021018C4FF2FF7319404FF6FF7303EADD
:1045800002231943018470470A460021018C4DF62D
:10459000FF7319404FF6FF7303EA02331943018496
:1045A000704730B5002301248C40A3B2048C9C4397
:1045B0000484048C02FA01F5ADB22C43048430BDAE
:1045C00030B5002304248C40A3B2048C9C430484A3
:1045D000048C02FA01F5ADB22C43048430BD70B5F1
:1045E0000346002000241846183001258D40ACB247
:1045F0001D8CA5431D8409B1082909D100EB610078
:10460000056825F0700505600568154305600EE036
:104610000D1FC5F34E052844056825F4E0450560E7
:1046200005684FF6FF7606EA02263543056070BD41
:1046300021B1028842F00202028004E002884FF6B3
:10464000FD731A400280704721B1028842F00402D3
:10465000028004E002884FF6FB731A400280704724
:1046600021B1828842F08002828004E082884FF685
:104670007F731A408280704702884FF6F7731A40A2
:10468000028002880A430280704782884FF68F7347
:104690001A40828082880A438280704702894FF6DE
:1046A000F8731A40028102890A4302817047028925
:1046B0004FF67F731A40028102890A4302817047D4
:1046C0008184704781857047818670470187704774
:1046D00081877047A0F84010704702884FF6FF436B
:1046E0001A40028002880A43028070470146888E81
:1046F00070470146088F70470146888F7047014612
:10470000B1F8400070470146888C70470146088D1B
:10471000704702460020138A0B400BB1012000E0D5
:1047200000207047CA430282704730B5024600201D
:1047300000230024158A05EA0103958905EA01048E
:1047400013B10CB1012000E0002030BDCA43028249
:104750007047000010B50446FB48844209D101218E
:104760008803FFF79FF800214FF48040FFF79AF885
:1047700032E0F648844209D101214804FFF79FF84E
:1047800000214FF40030FFF79AF825E0F04884420A
:1047900009D101218804FFF792F800214FF480200D
:1047A000FFF78DF818E0EB48844209D10121C804D5
:1047B000FFF785F800214FF40020FFF780F80BE0A9
:1047C000E548844208D101210805FFF778F8002167
:1047D0004FF48010FFF773F810BD2DE9F04786B055
:1047E00005460E460024A24600BFA1460027B08918
:1047F00000B100BF2F462C8A4CF6FF700440F088B1
:1048000004432C82AC894EF6F3100440B088318901
:104810000843718908430443AC81AC8A4FF6FF40DA
:104820000440B0890443AC8201A8FEF7B4FFC64837
:10483000874202D1DDF810A001E0DDF80CA0A889C4
:1048400000F4004040B10AEBCA0000EB0A103168E6
:104850004900B0FBF1F807E00AEBCA0000EB0A10D0
:1048600031688900B0FBF1F86420B8FBF0F0040176
:104870002009642101FB1089A88900F4004040B19F
:10488000322000EBC900B0FBF1F000F00700044358
:1048900008E0322000EB09106421B0FBF1F000F0D9
:1048A0000F0004432C8106B0BDE8F0874FF4165189
:1048B000016000218180C18001810C2141810021A2
:1048C0008181704710B502460020108A4FF2FF0325
:1048D00018400B884C8823438C882343CC8823437F
:1048E0001843108210BD0021018041808180C18069
:1048F000704721B1828942F40052828104E08289AA
:104900004DF6FF731A4082817047F0B503460024CC
:1049100000260025002040F66A17B94200D100BFEA
:104920001846C1F3421401F01F06012707FA06F5E5
:10493000012C01D10C3004E0022C01D1103000E038
:1049400014301AB107682F43076002E00768AF43CD
:104950000760F0BD1AB1838A0B43838202E0838A29
:104960008B4383827047028A4FF6F0731A400282AB
:10497000028A0A430282704782894FF2FF731A400B
:10498000828182890A438281704721B1828942F003
:104990000202828104E082894FF6FD731A4082810F
:1049A0007047028A4FF6DF731A400282028A0A4376
:1049B0000282704721B1028A42F48042028204E0FE
:1049C000028A4BF6FF731A4002827047C1F3080255
:1049D0008280704701468888C0F30800704781894B
:1049E00041F0010181817047028BD2B20283028BB8
:1049F00042EA012202837047028B02F47F42028363
:104A0000028B0A430283704721B1828A42F020025E
:104A1000828204E0828A4FF6DF731A4082827047F6
:104A200021B1828A42F01002828204E0828A4FF62B
:104A3000EF731A408282704721B1828A42F00802E5
:104A4000828204E0828A4FF6F7731A4082827047AE
:104A500021B1828942F40042828103E08289C2F35B
:104A60000E028281704721B1828A42F40062828202
:104A700004E0828A4FF2FF731A4082827047828A72
:104A80004FF6FB731A408282828A0A438282704701
:104A900021B1828A42F00202828204E0828A4FF6C9
:104AA000FD731A408282704702460020B1F5007FF4
:104AB00000D100BF13880B400BB1012000E00020A3
:104AC000704701F40072B2F5007F00D100BFCA4305
:104AD0000280704770B502460024002300250020A4
:104AE00040F66A16B14200D100BFC1F3421501F091
:104AF0001F03012606FA03F3012D02D196893340E4
:104B000006E0022D02D1168A334001E0968A334036
:104B10000C12012606FA04F41688344013B10CB1C5
:104B2000012000E0002070BD10B50022002340F6F7
:104B30006A14A14200D100BF0A1201249440A3B21A
:104B4000DC43048010BD00000038014000440040F8
:104B500000480040004C0040005000400020444904
:104B60000860091D0860091D0860091D08604148AA
:104B70003F4914310860704700213D498279002A7D
:104B80003AD00A46126803689A430B461A600A1D17
:104B9000126803689A430B1D1A60027911440A686F
:104BA00003681A430A60324A0832126803689A435B
:104BB0002F4B08331A601A1D126803689A432C4B56
:104BC0000C331A604279102A0ED11A1F126803683A
:104BD0001A43274B08331A601A1D126803681A43D8
:104BE000234B0C331A600DE02149427911440A68C5
:104BF00003681A430A6005E0027911440A680368F1
:104C00009A430A6070470021016001710C214171D3
:104C10000021817170471649103109680143144A17
:104C200010321160704701460020114A1432126898
:104C30000A400AB1012000E0002070470C491431FD
:104C400008607047014600200022094B1B6803EAF8
:104C50000102074B14331B680B4013B10AB101204A
:104C600000E00020704702491431086070470000DE
:104C700000040140FFFF0F00704700000FB404491B
:104C800010B503AA029800F0DFFA10BC5DF814FB1F
:104C90002C0F00202DE9F0410E4604460020206232
:104CA0002046E168884730B3252805D0D4E90121A2
:104CB0009047206A401CF2E7E168204600278847B9
:104CC000050018D0A5F14100192802D820354FF46D
:104CD00000673246294620462760FBF787FA40B135
:104CE000012804D0F61D26F007060836D8E7361D41
:104CF000D6E72846DAE7206ABDE8F0812DE9F041E1
:104D00000646002410687529314616A510D0AFF369
:104D10000080002802DA404213A507E031688A07C4
:104D200001D512A502E0490704D511A5012401E02F
:104D3000AFF3008000210A2206F1240709E0B0FB4E
:104D4000F2FCB0FBF2F302FB1C0030307854184642
:104D5000491C0028F3D123462A463046BDE8F041DD
:104D600000F00CB8000000002D0000002B00000037
:104D70002000000070477047704770472DE9F047EA
:104D80000D4699469246044600F1240801688806BB
:104D900004D5E06921F01001216000E00120A84263
:104DA00001DD471B00E00027A1697A1902EB090029
:104DB000081AA0612078C00602D42046AFF3008014
:104DC000002608E0D4E901211AF806009047206A7D
:104DD000401C761C20624E45F4DB2078C0060AD5C4
:104DE0002046AFF3008006E0D4E90121302090474F
:104DF000206A401C2062381EA7F10107F4DC07E09E
:104E0000D4E9012118F805009047206A401C20626F
:104E1000281EA5F10105F3DC2046AFF300802078C1
:104E2000000602D50220BDE8F0870120FBE77047AD
:104E30002DE9FF4F0C461E464FF0FF378BB0D2E9ED
:104E40000001DDF860800A908A46C1F30A5505B971
:104E50003D46002108464FF00000BAF1000F00F473
:104E6000400005DA00EB80004FF4400101EA5000F9
:104E70004FEA9059B9F1010F00DDB9460A9850EA9E
:104E80004A000ED044F61050A5F2FF3545432F14CA
:104E9000B8F1000F1ED07542291E1EDDC9F10002B7
:104EA0001CE0B8F1010F4FF0000001D0302103E009
:104EB000F24305E02154401CB042FBDB30460022A7
:104EC000002121540B99C1F80880C1E900200FB0DE
:104ED000BDE8F08FBD1B6D1CDEE74A4600DA694273
:104EE00006A800F065FA06AB93E8070003AB83E879
:104EF000070050460A9900F03DFB8DE80700A0F539
:104F000000501F3800900398002D09DD42F21F0168
:104F10004A46084403A90390684600F09CFD08E057
:104F2000A0F500504A461F3803A90390684600F0D8
:104F3000A6FD8DE807000004000C03D04FF0FF3001
:104F4000410800E01046B8F1000F03D000220092A3
:104F500015461EE0751E05D400F08CF930326255FE
:104F60006D1EF9D5B3460122084302D000227F1CF2
:104F700004E02078302801D100227F1E002A099702
:104F800086D01DE0112D07DA00F074F93032625539
:104F90006D1C50EA0102F5D1084302D00098C8B157
:104FA0000EE00021681E05E0235C625C635422541D
:104FB000401E491C8142F7DBAB46A81B401E0990EE
:104FC000002004F80B000B98099AC0F80880C0E98B
:104FD000002B7CE711264FF0000859E72DE9F04F30
:104FE00088460446D21D22F0070191B0D1E90001A4
:104FF000CDE90A0100F079FE02460B98C00F01D0FE
:105000002D2007E02068810701D52B2002E0202118
:1050100001EAC000032A099001D0072A05DB0346F4
:105020004146204600F084F90BE12078800601D546
:10503000E06900E00620B8F1650F814606D0B8F1BE
:10504000660F18D0B8F1670F70D131E00020B9F1C8
:10505000110F009001DB112301E009F101030AAAFD
:1050600001A90CA8FFF7E4FEDDE90C70002609F1A8
:105070000105834647E001204B4600904FF0004772
:105080000AAA01A90CA8FFF7D3FEDDE90DB00C991F
:105090005D46002610B909F101000D18B9EB0500B5
:1050A00003D4C0F1FF3609F10105A5EB09002BE09F
:1050B000B9F1010F01DA4FF001090020B9F1110F28
:1050C0000090484601DD112300E003460AAA01A929
:1050D0000CA8FFF7ADFEDDE90C704D4600268346B7
:1050E000207800070AD4AB4500DA5D4601A8012DFF
:1050F00004DD411911F8011C302907D04F4502DAAF
:1051000017F1040F04DA012082460FE06D1EEEE76E
:10511000002F02DCED1B3E4403E0781CA84200DDBA
:105120007D1CB81B00F1010A4FF0004720780007F2
:1051300003D4AA4501DB4FF0FF3A0021B7F1004F3D
:105140000DF143088DF8431024D002202B23002FAB
:1051500001DA7F422D230A21021EA0F1010000DCAA
:105160005FB197FBF1FC97FBF1F201FB1C7C17464A
:105170000CF1300C08F801CDEEE7A8F10100037046
:105180002188090501D5452100E06521A0F101082C
:1051900000F8011C09980FA9A1EB0807FF1D00B139
:1051A0000120411901EBEA70A1693844081A401E38
:1051B000A0612078C00602D42046AFF30080099891
:1051C00028B1D4E901219047206A401C2062207850
:1051D000C00622D52046AFF300801EE0002E04DB7F
:1051E000B34502DD01A8805D00E03020D4E9012153
:1051F0009047206A401C2062761CAAF101005FEAF9
:10520000000A0AD100F032F8C0680168405CD4E9B5
:1052100001219047206A401C2062281EA5F101054B
:10522000DCDC07E0D4E9012118F8010B9047206A83
:10523000401C2062381EA7F10107F3DC2046AFF3C3
:105240000080032011B043E6074B70B50D467B4448
:1052500000F05BF80446284600F018F910B14FF052
:10526000FF3070BD204670BD77DDFFFF00487047FE
:105270006410002030B5B0F10A024FEA900E71F1CF
:1052800000034EEA817EB0EB0E0061EB91014FEA24
:10529000101E4EEA017E10EB0E0041EB11114FEA99
:1052A000102E4EEA016E10EB0E0041EB11214FEA79
:1052B000104E4EEA014E10EB0E0041EB114140182A
:1052C00041F100014FEAD00040EA41704FEAD101BC
:1052D00010EB80054FEA810444EA907444EB01042A
:1052E0006D1944EB0404521BA3414FF0000348BF67
:1052F0000A3200D530BD401C41F1000130BD000034
:1053000001694A1C02610878704700B58FB0CDE989
:1053100001310021059105497944CDE90310114679
:105320006846FFF7B7FC0FB000BD0000E5FFFFFFC8
:105330002DE9F0411F46044603260168072A01F4BF
:10534000006004DB08B116A505E016A503E008B16E
:1053500015A500E015A521F010002060A069C01E71
:10536000A0610FB1401EA0612046AFF300804FB195
:10537000D4E9012138469047206A401C2062C01CB5
:10538000206206E0206AFAE7D4E9012115F8010B52
:105390009047761EF8D22046AFF30080BDE8F0813A
:1053A0004E414E006E616E00494E4600696E6600C9
:1053B0002DE9F047814616468AB0334878440DC837
:1053C0008DE80D0030487844801C03AC0DC884E89B
:1053D0000D0041F69B300844372190FBF1F290FB21
:1053E000F1F5A5F1800501FB12041B3C02D56442D6
:1053F000012000E00020DFF890A080460027FA445A
:10540000AAF1BE0A0DE0E00709D03246684607EB74
:1054100047010AEB810100F032FB8DE807006410C0
:105420007F1C002CEFD1184F7F44AC3F18E0E807F9
:1054300014D007EB04100DF1180A90E80E008AE86A
:105440000E00C068F04201D198190890324606A9B2
:1054500003A800F014FB03AB83E807006D10641C85
:10546000002DE4D132466946B8F1000F03A802D0FE
:1054700000F0F1FA01E000F002FBC9E90001C9F80F
:1054800008200AB0BDE8F087F0180000007B00F0AB
:105490008000704700487047441000207546FFF7B1
:1054A000F9FFAE4605006946534620F007008546E1
:1054B00018B020B5FDF740FEBDE820404FF00006D3
:1054C0004FF000074FF000084FF0000B21F00701EC
:1054D000AC46ACE8C009ACE8C009ACE8C009ACE82F
:1054E000C0098D4670470446AFF300802046FAF7A6
:1054F0009AFE00004FF0013C50F8042B51F8043B99
:105500009A4221D1A2EB0C03934313EACC1317D197
:1055100050F8042B51F8043B9A4215D1A2EB0C032E
:10552000934313EACC130BD150F8042B51F8043BEE
:105530009A4209D1A2EB0C03934313EACC13DBD0BC
:105540004FF00000704700BFD01A01BAB1FA81F1E4
:1055500001F0180122FA01F0CB40C1F12001DBB2C9
:10556000C0B2C01A2CFA01F3D11A914311EAC31147
:10557000E6D170475FEA400C08BF91F0000F4FEA98
:105580008C234FEAC12243EA51514FEA1C5018BF05
:1055900000F5F0404FEA300018BF41F000415FEAEB
:1055A0006C5C00F02980BCF1FF3F08BF40F08040F8
:1055B0007047130C06BF12044FF0100C4FF0000C94
:1055C000130E04BF12020CF1080C130F04BF1201DA
:1055D0000CF1040C930F04BF92000CF1020CD30FDA
:1055E00004BF52000CF1010C11464FF00002A0F173
:1055F0001F00A0EB0C00704711F0004F08BF704770
:1056000031F000413FF4D5AF0B0C06BF09044FF059
:10561000100C4FF0000C0B0E04BF09020CF1080C2B
:105620000B0F04BF09010CF1040C8B0F04BF8900A0
:105630000CF1020CCB0F04BF49000CF1010CCCF1B2
:105640002003A0EB0C0022FA03F302FA0CF241EA69
:10565000030100F10100704720F07F4C80EA030055
:1056600023F07F47ACEB070303F57C5300F00040C9
:1056700003F1FF032DE980494FEA154B09B44FEAC6
:10568000144325EA0B4E24EA03480FF2042606EBE6
:10569000132749083E785FEA320203FB0667C7F525
:1056A000000707FB06F64FEA54374FEAD64606F1E5
:1056B000020607FB066CCCF1005C4FEA1C472CEAA3
:1056C000074C07FB06F40CFB06F504EB15464FEA06
:1056D000961634BF00204FF000404FEAD13706FB4A
:1056E00007FC4FEA1C4C0CFB0BF7D21B03FB0CF71F
:1056F00061EB07010CFB0EF7B0EB074072EB1742B2
:105700000CFB08F734BFA2EB0742B2EB074261EB98
:1057100017414FEA0C444FEA910706FB07FC4FEA9A
:105720001C4C0CFB0BF7B0EBC74072EB573203FB82
:105730000CF734BFA2EBC742B2EBC74261EB573163
:105740000CFB0EF7B0EBC70072EB57720CFB08F7BF
:1057500034BFA2EBC702B2EBC70261EB5771039FE4
:105760004FEA816141EA921104EBCC044FEAD13750
:105770004FEA826206FB07FC42EA90124FEA806021
:105780004FEA1C4C0CFB0BF7D21B03FB0CF761EB35
:1057900007010CFB0EF7B0EB074072EB17420CFB56
:1057A00008F734BFA2EB0742B2EB074261EB1741A7
:1057B0004FEA8C554FEA910704EB9C2406FB07FC4B
:1057C0004FEA1C4C0CFB0BF7B0EBC74072EB5732A7
:1057D00003FB0CF734BFA2EBC742B2EBC74261EB4D
:1057E00057310CFB0EF7B0EBC70072EB57720CFB96
:1057F00008F734BFA2EBC702B2EBC70261EB5771E7
:1058000015EB4C254FEA816141EA92114FEA826221
:105810004FEAD13742EA901206FB07FC44F100043C
:105820004FEA80604FEA1C4C0CFB0BF7D21B03FBCA
:105830000CF761EB07010CFB0EF7B0EB074072EBC6
:1058400017420CFB08F734BFA2EB0742B2EB07424A
:1058500061EB174115EB1C154FEA813141EA92418A
:105860004FEA823242EA90424FEA80304FEA0C76A9
:1058700044F1000448EA03434EEA0B484FF0000E9F
:10588000B2EB080C71EB030724BF624639464EEBBE
:105890000E0E4FF0000B0018524149414BEB0B0B21
:1058A000B2EB080C71EB03077BF1000B24BF6246DF
:1058B00039464EEB0E0E4FF0000B00185241494195
:1058C0004BEB0B0BB2EB080C71EB03077BF1000BFE
:1058D00024BF624639464EEB0E0E51EA020718BF4E
:1058E00046F0010616EB0E7655F1000254F1000168
:1058F00003D5BDE88901BDE80088BDE88901BDE8A0
:105900000048B619524141EB0101A3F10103704770
:1059100080807F7E7D7C7B7A7978777676757473EC
:10592000727171706F6E6E6D6C6C6B6A6A696868AB
:10593000676666656464636362616160605F5F5E41
:105940005E5D5D5C5C5B5B5A5A59595858575756B7
:10595000565555555454535352525251515050501C
:105960004F4F4F4E4E4D4D4D4C4C4C4B4B4B4A4A6E
:105970004A494949484848474747474646464545B2
:1059800045444444444343434342424242414141EB
:10599000002B26D4770021D01CB54FEA370703B47B
:1059A0004FF010004FF010014FF000000FBCBDE8A9
:1059B00010400BF1010BBBF1010F08BF5FEA1707A5
:1059C00022BF12F1010211F101014FF0004143F138
:1059D000000300F0004043EA00007047F9D3570885
:1059E000DAE746EA064613F1400F4FEA16461FDD96
:1059F00013F1200FDFBF16430A46002120335B421C
:105A0000C8D0C3F1200746EA064602FA07F74FEA74
:105A1000164646EA0706C3F1200722FA03F201FA06
:105A200007F721FA03F14FF0000342EA0702B1E75A
:105A300046EA020646EA06464FEA164646EA0106E6
:105A4000BCBF46EA0646360C4FF000034FF000029A
:105A50004FF000019EE72DE9C048934630B491E82D
:105A6000380007C831EA400C48BF34EA430C03D57C
:105A7000FFF7F2FDFFF78CFFF0BCBDE800882DE9D1
:105A8000C048934630B491E8380007C810F0804F02
:105A900008BF13F0804F03D100F005F8FFF778FF3F
:105AA000F0BCBDE8008820F07F4780EA030023F0C7
:105AB0007F4C07EB0C03A3F57C5300F00040A3F1EF
:105AC000FE0392F0000F00F0B38095F0000F00F09D
:105AD00077802DE901494FEA11404FEA144621EA47
