:020000040800F2
:10000000A8160020D1300008AD050008AF05000893
:10001000B3050008B7050008BB0500080000000094
:10002000000000000000000000000000BF05000804
:10003000C105000800000000C3050008C505000850
:10004000EB300008EB300008EB300008EB30000824
:10005000EB300008EB30000823290008CF29000806
:100060007B2A0008EB300008EB300008EB3000087A
:10007000EB300008EB300008EB300008EB300008F4
:10008000EB300008EB300008EB300008EB300008E4
:10009000EB300008EB300008EB300008272B00089D
:1000A000EB300008EB300008EB300008EB300008C4
:1000B000950D0008110E0008EB300008EB30000829
:1000C000EB300008EB300008EB300008EB300008A4
:1000D000EB30000847300008EB300008EB30000838
:1000E000EB300008EB300008EB300008EB30000884
:1000F000EB300008EB300008EB300008EB30000874
:10010000EB300008EB300008EB300008EB30000863
:10011000EB300008EB300008232D0008EB3000081E
:10012000EB300008EB300008EB300008EB30000843
:1001300000F002F800F05EF80AA090E8000C82449B
:100140008344AAF10107DA4501D100F053F8AFF278
:10015000090EBAE80F0013F0010F18BFFB1A43F0A5
:1001600001031847F85A0000185B000010F8013B23
:100170000A4413F0030408BF10F8014B1D1108BF17
:1001800010F8015B641E05D010F8016B641E01F8C5
:10019000016BF9D1002D15D010F8014B03F00C03C1
:1001A0000C2BA1EB04040ABF10F8013BA4EB831451
:1001B000A4EB032405F1010314F8016B5B1E01F8A5
:1001C000016BF9D5914238BF10F8013BD1D370478C
:1001D0000023002400250026103A28BF78C1FBD850
:1001E000520728BF30C148BF0B6070471FB51FBD05
:1001F00010B510BD04F05AFD1146FFF7F7FF00F0EF
:1002000009F804F08CFD03B4FFF7F2FF03BC02F021
:10021000B3FE000000B58BB01E200A900990089034
:10022000079006902D2005904FF4A06002F070FF1B
:1002300002F01EFE4FF4E13002F0B9FE00F0B4FA15
:100240000A210C2000F0FAFA472140F2E73002F0D0
:1002500038FD4FF4C86001F0AFF840F6C4110598BE
:10026000CDE9001003464A42CDE90210014610468E
:1002700000F042FE00F025FBC8210598CDE90010F2
:1002800003464A42CDE902100146104600F02DFF18
:10029000BD4ADDE90701CDE90121CDE90320099837
:1002A00053420090194601200A9A01F084FCB74994
:1002B0000598CDE9001003464A42CDE902100146F7
:1002C000104600F019FE00F0FCFA2D20B049CDE9EF
:1002D000001003464A42CDE902100146104601F0E3
:1002E0003FF800F0CCFBAB490598CDE90010034680
:1002F0004A42CDE902100146C82000F0F6FEA64AA7
:10030000DDE90701CDE90121CDE903200998534238
:100310000090194600200A9A01F04DFC002001F0DF
:1003200074F940F6340001F0A9F84FF4FA61059829
:10033000CDE9001003464A42CDE9021001461046BD
:1003400000F0DAFD00F0BDFA4FF47A510598CDE9DE
:10035000001003464A42CDE902100146104600F063
:10036000FFFF00F0FAFA4FF496710598CDE90010FE
:1003700003464A42CDE902100146104600F0B5FEA0
:100380004BF66872DDE90701CDE90121CDE90320D3
:10039000099853420090194601200A9A01F00BFC7B
:1003A000012001F032F940F6340001F0C9F87B4930
:1003B0000598CDE9001003464A42CDE902100146F6
:1003C000104600F099FD00F07CFA75490598CDE9DA
:1003D000001003464A42CDE902100146104600F0E3
:1003E000BFFF00F04CFB6B4964310598CDE900106C
:1003F00003464A42CDE902100146104600F075FE60
:10040000654ADDE90701CDE90121CDE9032009981D
:1004100053420090194600200A9A01F0CCFB0020BC
:1004200001F0F3F84FF4C86001F028F84FF4FA61D6
:100430000598CDE9001003464A42CDE90210014675
:10044000104600F059FD00F03CFA4FF47A5105983F
:10045000CDE9001003464A42CDE90210014610469C
:1004600000F07EFF00F079FA4FF496710598CDE91F
:10047000001003464A42CDE902100146104600F042
:1004800034FE4BF66872DDE90701CDE90121CDE9C3
:100490000320099853420090194601200A9A01F05E
:1004A0008AFB012001F0B1F84FF4E16001F048F857
:1004B0003C490598CDE9001003464A42CDE90210B7
:1004C0000146104600F018FD00F0FBF9344905988C
:1004D000CDE9001003464A42CDE90210014610461C
:1004E00000F03EFF00F0CBFA2A4964310598CDE9CF
:1004F000001003464A42CDE902100146104600F0C2
:10050000F4FD254ADDE90701CDE90121CDE903200C
:10051000099853420090194600200A9A01F04BFBBB
:10052000002001F072F84FF4C8625342DDE9070180
:10053000CDE90031CDE902205042DDE9093100F07A
:10054000DBFC00F0BEF943F698214A420698CDE95B
:10055000002003460A46CDE902100146124800F089
:10056000FFFE00F0AEF9C8225342DDE90701CDE9F4
:100570000031CDE902205042DDE9093100F0B5FD3E
:1005800000200BB000BD0000700B0200C0F9FFFF9F
:1005900008EEFFFF70FEFFFF9840FFFF30F8FFFFFF
:1005A000E0B1FFFF3CF6FFFF68C5FFFF704700BFEB
:1005B000FEE700BFFEE700BFFEE700BFFEE77047B3
:1005C00070477047704700000CB500200190009004
:1005D0006C48006840F480306A49086000BF694890
:1005E000006800F4003000900198401C01900098D1
:1005F00018B90198B0F5A06FF1D16248006800F415
:10060000003010B10120009001E00020009000981F
:10061000012843D15C48006840F010005A49086046
:100620000846006820F0030008600846006840F0B3
:1006300002000860534840685249486008464068D4
:1006400048600846406840F480604860084640685A
:1006500020F47C1048600846406840F4E810486088
:100660000846006840F08070086000BF4548006898
:1006700000F000700028F9D04248406820F00300E4
:10068000404948600846406840F00200486000BFAA
:100690003C48406800F00C000828F9D10CBD10B5AA
:1006A000FFF792FF10BD10B53648006840F001001A
:1006B0003449086008464068344908403149486078
:1006C00008460068324908402E490860084600681C
:1006D00020F4802008600846406820F4FE0048604E
:1006E0004FF41F008860FFF7DAFF4FF000602949E0
:1006F000086010BD10B5002100200022214B5B686E
:1007000003F00C0121B1042906D0082928D107E003
:10071000214B224C236027E01F4B204C236023E019
:10072000184B5B6803F47010164B5B6803F480325F
:10073000022303EB904022B9194B4343174C23602B
:100740000DE0104B5B6803F4003323B1144B4343BB
:10075000124C236003E0104B4343104C236003E032
:100760000D4B0E4C236000BF00BF064B5B68C3F30C
:1007700003130C4CE15C094B1B68CB40074C236016
:1007800010BD000000100240002002400000FFF8F1
:10079000FFFFF6FE08ED00E000127A0000000020E6
:1007A00000093D000400002008B501219C2003F051
:1007B00039F83320ADF8000010208DF80300032035
:1007C0008DF802006946194802F070FD3321174880
:1007D00002F01BFE0720ADF8000010208DF803008A
:1007E00003208DF802006946114802F05FFD2020C9
:1007F000ADF8000010208DF8030003208DF80200F2
:1008000069460C4802F052FDFE20ADF80000282099
:100810008DF8030003208DF802006946064802F0B7
:1008200045FDFE21044802F0F0FD08BD000801402E
:10083000000C014000100140001C01407FB505463E
:100840000C460121084602F0FAFFADF80850ADF859
:1008500004400020ADF80A00ADF8060001A94FF0F1
:10086000804003F017F901221146900703F089FC3C
:100870001C208DF8000000208DF801008DF802008A
:1008800001208DF80300684602F047FC012188072B
:1008900003F05CFC7FBD10B500EB4002F94B53F850
:1008A000222002EB410200EB4003F64C04EB8303F1
:1008B0005A6010BD00EB4002F24B03EB82029160E4
:1008C0007047F0484068EF490968884202D001202B
:1008D000ED49087014E0EB484068EA49096888422D
:1008E0000ED10020E749486008600021E548016119
:1008F000C160C1618161816241620020E24908708A
:10090000E14800780028E6D1704710B5DD4840681E
:10091000DC490968884202D00120DB49087017E0F1
:10092000DA480068A0B9052002F0DFFAD74800686D
:1009300070B90020D349486008600021D1480161A6
:10094000C160C1618161816241620020CE4908704D
:10095000CD4800780028E3D110BD10B5C9484068E3
:10096000C8490968884202D00120C749087021E0BF
:10097000C6481038006818B1C4480C380068C8B9B7
:10098000052002F0B2FAC1481038006818B1BF481B
:100990000C38006870B90020BA494860086000212E
:1009A000B8480161C160C16181618162416200201A
:1009B000B5490870B44800780028D9D110BD10B5E9
:1009C000B0484068AF490968884202D00120AE496A
:1009D000087025E0AD4808380068012820D1AB48F0
:1009E000001F006801281BD1052002F07EFAA748ED
:1009F00008380068012813D1A448001F00680128A6
:100A00000ED100209F494860086000219D48016187
:100A1000C160C16181618162416200209A490870B0
:100A2000994800780028D5D110BD10B59548406888
:100A300094490968884202D001209349087019E05E
:100A40009248001D0068A8B9052002F04EFA8F48B0
:100A5000001D006870B900208A49486008600021C4
:100A600088480161C160C161816181624162002089
:100A700085490870844800780028E1D110BD10B580
:100A8000804840687F490968884202D001207E4939
:100A9000087021E07D480838006818B17B48001FC5
:100AA0000068C8B9052002F020FA784808380068C4
:100AB00018B17648001F006870B90020714948607D
:100AC000086000216F480161C160C161816181627C
:100AD000416200206C4908706B4800780028D9D129
:100AE00010BD7FB52825002666484068654909681D
:100AF000884202D00120644908704FE06348083002
:100B0000006868B9052002F0F0F960480830006814
:100B100030B95C480468012600205A4908604860E2
:100B20005848406857490968884237D100205549DC
:100B300048600860002153480161C160C161816162
:100B400081624162002050490870012E26D10220A6
:100B500000F05BFD002000F058FD2D204FF4C8612F
:100B60004B42CDE9003003460A46CDE9021001466A
:100B7000474800F0C1F9FFF7A4FE43F25840011BBB
:100B8000201ACDE9015143F258410A1B2B46294650
:100B90000395009000F0E4FBFFF793FE3A480078DD
:100BA0000028ABD17FBD37498968B0FBF1F201FB6A
:100BB000120171BB33490968324A5268914211DA15
:100BC0000021344A11602F498968B0FBF1F101F02E
:100BD0000101314AC2F880112A490968491C294A91
:100BE000116016E027490968264A5268914210DDD3
:100BF0000121284A116023498968B0FBF1F101F015
:100C00000101254AC2F880111E490968491E1D4A82
:100C1000116070471B494969B0FBF1F201FB1201F9
:100C200071BB1849CA6809698A4212DA0021194A57
:100C3000121D116013494969B0FBF1F101F0010186
:100C4000154AC2F884110F49C968491C0D4AD16080
:100C500016E00C49CA6809698A4211DD01210D4A72
:100C6000121D116007494969B0FBF1F101F0010162
:100C7000094AC2F884110349C968491E014AD16072
:100C8000704700004C0F0020180000201481234200
:100C9000C0F9FFFF80812142000021428C49096A8E
:100CA000B0FBF1F201FB120161BB89498A69C96994
:100CB0008A4211DA0021874A11608549096AB0FB2E
:100CC000F1F101F00101844AC2F89011804989696B
:100CD000491C7F4A916115E07D498A69C9698A4248
:100CE00010DD01217B4A11607949096AB0FBF1F1FD
:100CF00001F00101784AC2F8901175498969491ECD
:100D0000734A916170477249C96AB0FBF1F201FB05
:100D1000120161BB6E494A6A896A8A4211DA00216E
:100D20006E4A11606A49C96AB0FBF1F101F0010134
:100D3000694AC2F894116649496A491C644A516279
:100D400015E063494A6A896A8A4210DD0121634AD3
:100D500011605F49C96AB0FBF1F101F001015E4A1F
:100D6000C2F894115A49496A491E594A516270475A
:100D700000B55B480068FFF716FF59480068FFF7A9
:100D800049FF57480068FFF789FF55480068FFF79B
:100D9000BAFF00BD10B50121880703F0A0FC30B1F7
:100DA000FFF7E6FF4E480068401C4D4908600121EE
:100DB000880703F0A5FC10BD7FB505460C46012150
:100DC000022002F03CFDADF80850ADF804400020D0
:100DD000ADF80A00ADF8060001A9424802F05AFE3B
:100DE000012211463F4803F0CCF91D208DF8000088
:100DF00000208DF8010001208DF802008DF803001D
:100E0000684602F08AF90121364803F09FF97FBD58
:100E100010B50121334803F062FC58B1012131487B
:100E200003F06EFC3048006808B9012000E00020A3
:100E30002D49086010BD30B589B005460C4601212A
:100E4000022002F0FCFC0121092002F0EBFC012150
:100E5000264802F0FCFA0121254802F0F8FA302079
:100E6000ADF8200018208DF8230003208DF8220013
:100E700008A9204802F01AFAADF81850ADF814404D
:100E80000020ADF81A00ADF8160005A9154802F0CB
:100E900001FE7020ADF804000120ADF8060000202E
:100EA000ADF80C0001A90F4802F073FE01A90D482E
:100EB00002F02DFE08210B4803F081FA08210948B1
:100EC00003F074FA0121074803F040F909B030BD7E
:100ED0004C0F0020888121420000214294012242CF
:100EE000140000200004004094012342000230005E
:100EF00000081A00000C01402DE9F05F0546884605
:100F000016461F46DDE90BABDDF828902946002088
:100F1000FFF7C1FC31460120FFF7BDFC4946022026
:100F2000FFF7B9FC59460320FFF7B5FC00241DE08C
:100F3000F84850F8248050F8247050F824A050F855
:100F400024000D90042001F0D0FF41460020FFF75F
:100F5000B1FC39460120FFF7ADFC51460220FFF7F6
:100F6000A9FC03200D99FFF7A5FC641CF02CDFDB26
:100F7000BDE8F09F2DE9F05F0546884616461F46FE
:100F8000DDE90BABDDF8289029460020FFF783FC54
:100F900031460120FFF77FFC49460220FFF77BFC2A
:100FA00059460320FFF777FC00241DE0DA4850F88B
:100FB000248050F8247050F824A050F824000D909C
:100FC000042001F092FF41460020FFF773FC3946F0
:100FD0000120FFF76FFC51460220FFF76BFC032056
:100FE0000D99FFF767FC641CB4F5FF7FDEDBBDE8FD
:100FF000F09F2DE9F05F0546884616461F46DDE95D
:101000000BABDDF8289041460020FFF744FC394641
:101010000120FFF740FC51460220FFF73CFC032073
:101020000D99FFF738FC00241DE0BA4850F8246001
:1010300050F8249050F824B050F824000E9002206C
:1010400001F02FFF31460020FFF734FC4946012014
:10105000FFF730FC59460220FFF72CFC03200E99C5
:10106000FFF728FC641CAC42DFDBBDE8F09F2DE9F4
:10107000F05F0546884616461F46DDE90BABDDF8F6
:10108000289041460020FFF706FC39460120FFF773
:1010900002FC51460220FFF7FEFB03200D99FFF7EB
:1010A000FAFB00241DE09B4850F8246050F824907F
:1010B00050F824B050F824000E90022001F0F1FE08
:1010C00031460020FFF7F6FB49460120FFF7F2FB0F
:1010D00059460220FFF7EEFB03200E99FFF7EAFBCB
:1010E000641CAC42DFDBBDE8F09F2DE9F05F0546F4
:1010F000884616461F46DDE90BABDDF828902946E9
:101100000020FFF7C8FB31460120FFF7C4FB49462A
:101110000220FFF7C0FB59460320FFF7BCFBEF247A
:101120001DE07C4850F8248050F8247050F824A02A
:1011300050F824000D90642001F0B3FE41460020D9
:10114000FFF7B8FB39460120FFF7B4FB51460220F8
:10115000FFF7B0FB03200D99FFF7ACFB641E002CDA
:10116000DFDABDE8F09F2DE9F05F054688461646B8
:101170001F46DDE90BABDDF8289029460020FFF77C
:101180008AFB31460120FFF786FB49460220FFF724
:1011900082FB59460320FFF77EFB40F2F9141DE065
:1011A0005D4850F8248050F8247050F824A050F87E
:1011B00024000D90032001F098FE41460020FFF727
:1011C00079FB39460120FFF775FB51460220FFF7F6
:1011D00071FB03200D99FFF76DFB641E002CDFDA15
:1011E000BDE8F09F2DE9F05F0546884616461F468C
:1011F000DDE90BABDDF8289041460020FFF74BFB03
:1012000039460120FFF747FB51460220FFF743FB19
:1012100003200D99FFF73FFB2C461DE03D4850F899
:10122000246050F8249050F824B050F824000E9018
:10123000022001F05AFE31460020FFF73BFB4946F1
:101240000120FFF737FB59460220FFF733FB03204D
:101250000E99FFF72FFB641E002CDFDABDE8F09F2C
:101260002DE9F05F0546884616461F46DDE90BABC3
:10127000DDF8289029460020FFF70DFB31460120BC
:10128000FFF709FB49460220FFF705FB59460320FB
:10129000FFF701FB1D241DE01F4850F8248050F883
:1012A000247050F824A050F824000D901E2001F066
:1012B0001CFE41460020FFF7FDFA39460120FFF7EA
:1012C000F9FA51460220FFF7F5FA03200D99FFF7CE
:1012D000F1FA641E002CDFDABDE8F09F2DE9F05F23
:1012E0000546884616461F46DDE90BABDDF828901B
:1012F00029460020FFF7CFFA31460120FFF7CBFA4D
:1013000049460220FFF7C7FA59460320FFF7C3FA00
:10131000002421E020000020E0030020FA4850F8DB
:10132000248050F8247050F824A050F824000D9028
:101330001E2001F0DAFD41460020FFF7BBFA3946D6
:101340000120FFF7B7FA51460220FFF7B3FA032056
:101350000D99FFF7AFFA641C1E2CDFDBBDE8F09F90
:101360002DE9F05F04460F4615461E46DDE90CAB3D
:10137000DDE90A8921460020FFF78DFA2946012080
:10138000FFF789FA41460220FFF785FA514603200C
:10139000FFF781FA39460020FFF78CFA3146012029
:1013A000FFF788FA49460220FFF784FA59460320DE
:1013B000FFF780FABDE8F09F7FB504462D2160421B
:1013C000CDE900410B466242CDE902012046FFF71C
:1013D00093FDFFF776FA2320CC494B42CDE900304C
:1013E00003460A46CDE90210014642F21070FFF7AB
:1013F000B7FFC7484068C6490968884200D0012540
:101400001BE0C4480068C0B9052001F06EFDC1486A
:10141000006890B9052001F068FDBE48006860B919
:101420000020BB49486008600021B9480161C160E3
:10143000C1618161816241620025002DE1D12320DB
:10144000B5494B42CDE9003003460A46CDE90210CA
:10145000014640F2DC50FFF783FFFFF732FA2D2000
:10146000AE494B42CDE9003003460A46CDE90210B1
:1014700001464FF4AF70FFF738FE7FBD7FB50446DD
:101480002D216042CDE900410B466242CDE90201C7
:101490002046FFF731FDFFF714FA23209B494B420A
:1014A000CDE9003003460A46CDE90210014642F27A
:1014B0001070FFF755FF96484068954909688842C3
:1014C00000D001251BE093480068C0B9052001F059
:1014D0000CFD9048006890B9052001F006FD8D488C
:1014E000006860B900208A49486008600021884887
:1014F0000161C160C1618161816241620025002D8D
:10150000E1D1232086494B42CDE9003003460A460B
:10151000CDE9021001464FF49660FFF721FFFFF777
:10152000D0F92D207D494B42CDE9003003460A46D3
:10153000CDE9021001464FF4AF70FFF7D6FD7FBD35
:101540007FB504462D216042CDE900410B46624241
:10155000CDE902012046FFF7CFFCFFF7B2F92320C7
:101560006A494B42CDE9003003460A46CDE90210F4
:10157000014642F21070FFF7F3FE65484068644987
:101580000968884200D001251EE06248001D0068FD
:10159000D0B9052001F0A9FC5E48001D006898B98B
:1015A000052001F0A2FC5B48001D006860B9002026
:1015B000574948600860002155480161C160C16118
:1015C0008161816241620025002DDED123205449D2
:1015D0004B42CDE9003003460A46CDE902100146F0
:1015E0004FF49660FFF7BCFEFFF76BF92D206FF00C
:1015F000C701C823CDE9003003460A46CDE90210F1
:101600000146C820FFF771FD7FBD2DE9F04F85B081
:1016100005460126002D73D170E0062001F065FC1F
:1016200001F0C1FB00213F48006804F06FFA65D863
:101630003D493C48006804F069F95FD8062001F094
:1016400054FC01F0B0FB00213648006804F05EFA5B
:1016500054D835493348006804F058F94ED801F0A1
:10166000A2FB062001F041FC30492E48006804F03E
:101670004DFA2ED82C492B48006804F047F928D899
:101680002A492848006804F073FA8046284904F083
:1016900071F9074604F006F904464B2260426142A4
:1016A000CDE90112CDE9030223462146C82000926C
:1016B000FFF79FFCFFF705F91C491A48006804F082
:1016C00025FA06D81B491748006804F01FF900D80E
:1016D000002616491348006804F018F90ED25F205E
:1016E0005021CDE90110CDE903104B4202461946C5
:1016F0000090C820FFF77DFCFFF7E3F8002E8CD1A7
:10170000012D7CD18BE00000E0030020F0D8FFFF2A
:101710004C0F00201481234224FAFFFFA2FEFFFF9A
:1017200050FBFFFF200F00200000C8430000F041E5
:101730000000A04000008C42062001F0D6FB01F022
:1017400000FB0021FE48006804F0E0F967D8FD497D
:10175000FB48006804F0DAF861D8062001F0C5FB08
:1017600001F0EFFA0021F648006804F0CFF956D8EE
:10177000F449F348006804F0C9F850D8F249F04839
:10178000006804F0C3F932D8EE49ED48006804F06F
:10179000BDF82CD8ED49EA48006804F0E9F9834621
:1017A00003F024FFEA4AEB4BCDE9020103F036FDDA
:1017B000074603F0F1FC04464B20CDE90140CDE99A
:1017C00003406342024661420090C820FFF711FCCB
:1017D000FFF777F8DC49DA48006804F097F906D893
:1017E000DD49D748006804F091F800D80026D649B2
:1017F000D348006804F08AF811D25F2000E010E0BE
:101800006FF03101CDE90110CDE90310322302461A
:1018100019460090C820FFF7ECFBFFF752F8002EA6
:101820008AD1022D7ED1C0E1062001F05EFB01F0DD
:10183000ADFA01F0B8FA0021C848006804F066F972
:10184000F1D8C049C548006804F060F8EBD806201C
:1018500001F04BFB01F09AFA01F0A5FA0021C04813
:10186000006804F053F9DED8B649BD48006804F0BA
:101870004DF8D8D8B549BA48006804F047F927D2DE
:10188000B849B648006804F041F921D2B649B448D5
:10189000006804F06DF9834603F0A8FE07464FF098
:1018A0003332B24B03F0BAFCCDE9020103F074FC11
:1018B00004465F2260426142CDE90112CDE9030294
:1018C00023462146C8200092FFF793FBFEF7F9FF5D
:1018D000A549A348006804F019F864D2A4499F48B8
:1018E000006804F013F85ED29C4801689C480068C8
:1018F00004F03EF907469F4904F008F923D29748BF
:1019000001689B4804F034F9834603F06FFE4FF002
:101910003332964BCDE9020103F080FC074603F019
:101920003BFC00E044E104465F20CDE90140CDE905
:1019300003402346024621460090C820FFF759FB8A
:10194000FEF7BFFF0EE05F2260426142CDE9011267
:10195000CDE9030263426142C8200092FFF749FBD0
:10196000FEF7AFFF7E4801687F4804F001F9834627
:1019700003F03CFE07464FF033327C4B03F04EFC45
:10198000CDE9020103F008FC04465F20CDE90140E7
:10199000CDE903406342024661420090C820FFF750
:1019A00028FBFEF78EFF062001F09FFA01F0EEF90A
:1019B00001F0F9F96E496948006804F0A7F87AD88F
:1019C00068496648006803F0A1FF74D8062001F05A
:1019D0008CFA01F0DBF901F0E6F963496048006830
:1019E00004F094F867D859495D48006803F08EFF09
:1019F00061D85A48D0F800905948D0F800A05E4904
:101A0000504604F0B5F80746494603F07FFF09D277
:101A10005A49504603F016FE0746494604F076F848
:101A200000D200265146484604F070F81ED25146B6
:101A3000484604F09DF8834603F0D8FD444A504BD5
:101A4000CDE9020103F0EAFB074603F0A5FB0446DB
:101A50005F20CDE90140CDE90340234602462146FF
:101A60000090C820FFF7C5FAFEF72BFF4946504605
:101A700004F04CF81FD24946504604F079F88346EA
:101A800003F0B4FD324A3E4BCDE9020103F0C6FB40
:101A9000074603F081FB04465F2260426142CDE9C4
:101AA0000112CDE9030263426142C8200092FFF7B0
:101AB000A0FAFEF706FF2948D0F800902848D0F891
:101AC00000A05146484604F053F80746264904F062
:101AD0001DF81ED25146484604F04AF8834603F0EA
:101AE00085FD1B4A264BCDE9020103F097FB074613
:101AF00003F052FB04465F20CDE90140CDE90340ED
:101B00002346024621460090C820FFF772FAFEF7EE
:101B1000D8FE4946504604F02BF80746124903F018
:101B2000F5FF42D24946504604F022F8834603F0BE
:101B30005DFD074A124BCDE9020103F06FFB21E086
:101B4000000F00200000C8430000F0410000A04248
:101B5000CDCCCCCCCCCC0C400000BE42180F002029
:101B6000200F00200000B442000020423333F33F36
:101B7000000048420000A041000020410000A040B9
:101B8000CCCCEC3F074603F007FB04465F226042E3
:101B90006142CDE90112CDE9030263426142C820EE
:101BA0000092FFF726FAFEF78CFE002E7FF43CAE83
:101BB00005B0BDE8F08F0FB58FB000200D900B90F1
:101BC0000A905F20079000200690FDE3FE48006821
:101BD000F0B9FD48001D0068012819D1FA48083005
:101BE0000068A8B9F8480C300068012810D16FF0DF
:101BF0009F010798CDE90110CDE903100B4602467D
:101C00000090C820FFF7F5F9FEF75BFE00200C906E
:101C1000ED480068002861D1EB48001D00680128EC
:101C20005CD1E94808300068012857D1E6480C30FB
:101C30000068002852D1E5A002F0FAFF01F09AF8FE
:101C40000C2001F052F9E349E348006803F090FFEB
:101C5000019003F0CBFC4FF06632E04BCDE902017E
:101C600003F0DCFACDE9040103F096FA0890D949B3
:101C7000D948006803F04AFF17D8D949D648006808
:101C800003F044FE11D808994942DDE90702CDE985
:101C90000120CDE90310534202460090C820089964
:101CA000FFF7A7F9FEF70DFE10E06FF04F0150228D
:101CB0000798CDE90120CDE903100B4602465021DB
:101CC0000090C820FFF795F9FEF7FBFD0C9803285C
:101CD00002D10D98401C0D9001200C90BA4800686C
:101CE00001281CD1B848001D0068C0B9B6480830AA
:101CF0000068012813D1B4480C30006878B9A021DD
:101D00000798CDE90110CDE903100B46024600907B
:101D1000C820FFF76EF9FEF7D4FD02200C90AA4808
:101D2000006801285CD1A848001D0068002857D130
:101D3000A54808300068002852D1A3480C3000683C
:101D400001284DD101F00AF80C2001F0CEF8A54988
:101D5000A548006803F00CFF019003F047FC4FF02A
:101D600066329E4BCDE9020103F058FACDE9040139
:101D700003F012FA089097499B48006803F0C6FEEA
:101D800016D897499848006803F0C0FD10D8DDE9DF
:101D900007104242CDE90121CDE903010A4603467D
:101DA00000915942C820FFF724F9FEF78AFD0FE0A1
:101DB00050214A420798CDE90120CDE903100B4696
:101DC000024649420090C820FFF713F9FEF779FD5B
:101DD0000C98012802D10D98401C0D9003200C9006
:101DE0007948006800287DD17748001D00680028E8
:101DF000F9D17548083000680028F4D172480C30D9
:101E000000680028EFD1192001F06FF86E480068D3
:101E10000028E8D16C48001D00680028E3D16A481A
:101E2000083000680028DED167480C3000680028C0
:101E3000D9D1192001F059F8634800680028D2D19F
:101E40006148001D00680028CDD15F480830006857
:101E50000028C8D15C480C3000680028C3D10F9816
:101E600000287DD119206149CDE9001003464A427E
:101E7000CDE9021001461046FFF77CF8FEF721FD80
:101E8000192215991798CDE900121346CDE90202DF
:101E90001921129A1098FFF763FA5548406854497F
:101EA0000968884201D00120099030E04648006866
:101EB00001282CD14448001D0068012827D10A20A0
:101EC00001F013F840480068012820D13E48001D69
:101ED000006801281BD10A2001F007F83A48006881
:101EE000012800E070E112D13748001D0068012888
:101EF0000DD100203E494860086000213C48016146
:101F0000C160C161816181624162002009900998CC
:101F10000028CBD11E206FF0C701CDE90010034689
:101F2000C822CDE9021001461046FFF719FAFEF764
:101F3000C8FC23206FF0C701CDE900100346C8227A
:101F4000CDE9021001461046FFF70AFAFEF7B9FC88
:101F500028206FF0C701CDE900100346C82200E039
:101F60004FE0CDE9021001461046FFF7F9F9FEF700
:101F7000A8FC2B206FF0C701CDE900100346C82252
:101F8000CDE9021001461046FFF7EAF9FEF799FC89
:101F90002D201849CDE9001003464A42CDE9021030
:101FA00001461046FFF7DCF9FEF73FFD04200C90D8
:101FB0002D201149CDE9001003464A42CDE9021017
:101FC000014610461AE0000004812342D7F3D2C62E
:101FD0000D0A00000000DC42100F0020666616406B
:101FE00000007A430000E642080F002090E8FFFF5F
:101FF0004C0F0020A8E4FFFFA2FEFFFFFFF775F8DB
:1020000094E30F9801287DD1192041F27071CDE938
:10201000001003464A42CDE9021001461046FEF781
:10202000A9FFFEF74EFC192215991798CDE9001269
:102030001346CDE902021921129A1098FFF790F980
:10204000F8484068F7490968884201D001200990A2
:102050002EE0F548006801282AD1F348001D0068E9
:10206000012825D10A2000F040FFEF480068012830
:102070001ED1ED48001D0068012819D10A2000F08A
:1020800034FFE9480068012812D1E748001D0068C4
:1020900001280DD10020E349486008600021E14893
:1020A0000161C160C161816181624162002009906A
:1020B00009980028CDD11E20C821CDE90010034683
:1020C0004A42CDE9021001461046FFF749F9FEF7F2
:1020D000F8FB2320C821CDE9001003464A42CDE990
:1020E000021001461046FFF73BF9FEF7EAFB2820F5
:1020F000C821CDE9001003464A42CDE9021001464D
:10210000104600E030E0FFF72BF9FEF7DAFB2B205A
:10211000C821CDE9001003464A42CDE9021001462C
:102120001046FFF71DF9FEF7CCFB2D2041F6583184
:10213000CDE9001003464A42CDE90210014610469F
:10214000FFF70EF9FEF7E1FB04200C902D204FF471
:10215000AF71CDE9001003464A42CDE902100146B5
:102160001046FEF7C2FFE1E20F9802282CD1192099
:10217000AE49CDE9001003464A42CDE902100146BE
:102180001046FEF7F7FEFEF79CFB192215991798EB
:10219000CDE900121346CDE902021921129A1098D6
:1021A000FFF7DEF804200C90FEF78BFB19206FF090
:1021B000F901CDE900100346FA22CDE902100146EB
:1021C0001046FEF7D0FFB1E29748083800680128B2
:1021D00039D19548001F0068A8BB9348006890BBA0
:1021E0009148001D006870BB0A2000F07EFE8E48FA
:1021F00008380068012826D18B48001F006810BBF2
:1022000089480068F8B98848001D0068D8B9069860
:10221000052818DA38210798CDE90110CDE9031017
:102220000B4602460090C820FEF7E3FEFEF749FB8E
:102230000C98082802D10B98401C0B9005200C909C
:102240000698401C0690784808380068D8BB764845
:10225000001F0068012836D17348006898BB724897
:10226000001D006878BB0A2000F03FFE6E48083869
:10227000006840BB6C48001F0068012823D16A48F1
:10228000006800BB6848001D0068E0B90698052892
:1022900019DA6FF037010798CDE90110CDE9031085
:1022A0000B4602460090C820FEF7A3FEFEF709FB8E
:1022B0000C98072802D10A98401C0A9006200C901E
:1022C0000698401C0690584808380068E8BB5648F5
:1022D000001F0068C8BB54480068012835D1524827
:1022E000001D006888BB0A2000F0FFFD4E4808383A
:1022F000006850BB4C48001F006830BB4A4800686B
:10230000012822D14848001D0068F0B90698052828
:102310001BDA47A002F08CFC38210798CDE90110A8
:10232000CDE903100B4602460090C820FEF761FE7F
:10233000FEF7C7FA0C98062802D10A98401C0A90AA
:1023400007200C900698401C069037480838006813
:10235000D8BB3548001F0068B8BB33480068A0BB35
:102360003148001D0068012832D10A2000F0BDFD6F
:102370002D480838006840BB2B48001F006820BB70
:102380002948006808BB2848001D006801281FD1A3
:10239000069805281CDA6FF037010798CDE901107F
:1023A000CDE903100B4602460090C820FEF721FE3F
:1023B000FEF787FA0C98052802D10B98401C0B9069
:1023C00008200C90069801E083E001E0401C069094
:1023D000069805287DD10F9800287BD11920174930
:1023E000CDE9001003464A42CDE9021001461046ED
:1023F000FEF7C0FDFEF765FA192215991798CDE989
:1024000000121346CDE902021921129A1098FEF724
:10241000A7FF0448406803490968884201D00120A9
:1024200009903CE04C0F00200C812342D8F5FFFFBF
:10243000D0E8D2AAC4E6D0FD0D0A000090E8FFFF64
:10244000BC48006801282AD1BA48001D006801284C
:1024500025D10A2000F049FDB648006801281ED1A8
:10246000B448001D0068012819D10A2000F03DFD84
:10247000B0480068012812D1AE48001D006801284C
:102480000DD10020AC49486008600021AA480161D4
:10249000C160C16181618162416200200990099837
:1024A0000028CDD11E206FF0C701CDE900100346F2
:1024B000C822CDE9021001461046FEF751FFFEF793
:1024C00000FA23206FF0C701CDE900100346C822AF
:1024D00001E029E142E0CDE9021001461046FEF795
:1024E0003FFFFEF7EEF928206FF0C701CDE900109D
:1024F0000346C822CDE9021001461046FEF730FF20
:10250000FEF7DFF92B206FF0C701CDE9001003467D
:10251000C822CDE9021001461046FEF721FFFEF762
:10252000D0F92D208549CDE9001003464A42CDE976
:10253000021001461046FEF713FFFEF776FA04205C
:102540000C902D207E49CDE9001003464A42CDE98A
:10255000021001461046FEF7C8FDE7E00F9801287B
:102560007ED1192041F27071CDE9001003464A4234
:10257000CDE9021001461046FEF7FCFCFEF7A1F97A
:10258000192215991798CDE900121346CDE90202D8
:102590001921129A1098FEF7E3FE674840686649D1
:1025A0000968884201D00120099031E06148083073
:1025B000006801282CD15F480C300068012827D121
:1025C0000A2000F092FC5B480830006801281FD107
:1025D00058480C30006801281AD10A2000F085FC08
:1025E000544808300068012812D152480C30006865
:1025F00001280DD1002050494860086000214E4854
:102600000161C160C1618161816241620020099004
:1026100009980028CAD11E20C821CDE90010034620
:102620004A42CDE9021001461046FEF799FEFEF738
:1026300048F92320C821CDE9001003464A42CDE9DC
:10264000021001461046FEF78BFEFEF73AF92820ED
:10265000C821CDE9001003464A42CDE9021000E04E
:1026600032E001461046FEF77BFEFEF72AF92B20EA
:10267000C821CDE9001003464A42CDE902100146C7
:102680001046FEF76DFEFEF71CF92D2041F658317D
:10269000CDE9001003464A42CDE90210014610463A
:1026A000FEF75EFEFEF731F904200C902D204FF46A
:1026B000AF71CDE9001003464A42CDE90210014650
:1026C0001046FEF712FD31E00F9802282CD1192098
:1026D0001C49CDE9001003464A42CDE902100146EB
:1026E0001046FEF747FCFEF7ECF8192215991798EB
:1026F000CDE900121346CDE902021921129A109871
:10270000FEF72EFE04200C90FEF7DBF819206FF088
:10271000C701CDE900100346C822CDE902100146E9
:102720001046FEF720FD01E0FFF750BA00BF13B0DE
:1027300000BD0000048123424C0F0020A8E4FFFFED
:10274000A2FEFFFFD8F5FFFF08B50121702001F0C0
:1027500069F80220ADF8000010208DF80300032076
:102760008DF802006946FE4800F0A0FD0221FC48F9
:1027700000F04BFE0120ADF800006946F94800F07A
:1027800095FD0121F74800F040FE0220ADF8000061
:102790006946F54800F08AFD0221F34800F035FE55
:1027A0000820ADF800006946ED4800F07FFD0821E3
:1027B000EB4800F02AFE1020ADF800006946E8481A
:1027C00000F074FD1021E64800F01FFE08BD1FB5A3
:1027D0000121702001F026F80120ADF8000028202A
:1027E0008DF803006946DE4800F060FD0220ADF878
:1027F000000028208DF803006946DA4800F056FDF5
:102800000420ADF8000028208DF803006946D64862
:1028100000F04CFD2020ADF8000028208DF80300CA
:102820006946CF4800F042FD4020ADF80000282066
:102830008DF803006946CA4800F038FD01210846BA
:1028400000F0F0FF0021042000F046FE012002907D
:1028500000208DF80C0010208DF80D0001208DF85F
:102860000E0002A802F062F90121032000F034FEFC
:102870000220029002A802F059F90221084600F055
:102880002BFE0420029002A802F050F9052104203A
:1028900000F022FE2020029002A802F047F9062153
:1028A000042000F019FE4020029002A802F03EF938
:1028B00006208DF8040000208DF8050001208DF819
:1028C00006008DF8070001A800F027FC07208DF80E
:1028D000040000208DF8050001208DF806008DF819
:1028E000070001A800F019FC08208DF80400002062
:1028F0008DF8050001208DF806008DF8070001A86D
:1029000000F00BFC17208DF8040000208DF8050066
:1029100001208DF806008DF8070001A800F0FDFBEE
:102920001FBD2DE9FF5F012002F066F901284CD19F
:102930008E48006868BB8E48006802F057FE8246E9
:102940008B468C49888C02F056FC804600228A4BCC
:1029500002F0CAFA04460D468848006802F04BFCB3
:10296000064622462B4602F017FA52465B46CDE950
:10297000000102F051FDCDE9020102F0DBF97C49D2
:1029800008607F497A48006802F0F4FF7D490860DA
:1029900018E07849888C02F02EFC80460022764BA5
:1029A00002F0A2FA06460F467448006802F023FCC3
:1029B000824632463B4602F0EFF9044602F0BAF98D
:1029C0006B490860012002F028F9BDE8FF9F2DE95E
:1029D000FF5F022002F010F901284CD16A4800681C
:1029E00068BB6A48006802F001FE82468B46614976
:1029F000888C02F000FC804600225F4B02F074FAE3
:102A000004460D465D48006802F0F5FB0646224686
:102A10002B4602F0C1F952465B46CDE9000102F0B7
:102A2000FBFCCDE9020102F085F9584908605449E0
:102A30005648006802F09EFF5549086018E04D496D
:102A4000888C02F0D8FB804600224B4B02F04CFAF7
:102A500006460F464948006802F0CDFB82463246E2
:102A60003B4602F099F9044602F064F947490860D0
:102A7000022002F0D2F8BDE8FF9F2DE9FF5F04209D
:102A800002F0BAF801284CD14248006868BB4248BD
:102A9000006802F0ABFD82468B463649888C02F016
:102AA000AAFB80460022344B02F01EFA04460D4673
:102AB0003248006802F09FFB064622462B4602F091
:102AC0006BF952465B46CDE9000102F0A5FCCDE969
:102AD000020102F02FF93049086029492E480068A8
:102AE00002F048FF2D49086018E02249888C02F066
:102AF00082FB80460022204B02F0F6F906460F4684
:102B00001E48006802F077FB824632463B4602F0E0
:102B100043F9044602F00EF91F490860042002F050
:102B20007CF8BDE8FF9F2DE9FF5F202002F064F8EC
:102B3000012872D10D481430006898BB184800680D
:102B400002F054FDCDE902010A49888C02F053FBE2
:102B500080460022084B02F0C7F906460F4622E0E5
:102B60000018014000140140001001400001234200
:102B7000040F00200010004000408F40FC0E002099
:102B800000002A43000F0020048122420C0F002085
:102B9000080F002008012242140F0020100F00200F
:102BA0001C0F00201BE0A448006802F024FB324602
:102BB0003B46CDE9000102F0EFF80446DDE90223CF
:102BC00002F02AFC824602F0B5F89C4908609C4954
:102BD0009A48006802F0CEFE9A49086018E09A49C7
:102BE000888C02F008FB82460022984B02F07CF9A8
:102BF00006460F469048006802F0FDFA80463246CD
:102C00003B4602F0C9F8044602F094F88B4908608C
:102C1000202002F002F852E0FFE7402001F0ECFF34
:102C200001284CD18A48006868BB8A48006802F0D5
:102C3000DDFC04460D468449888C02F0DCFA002253
:102C4000824BCDE9000102F04FF9804689467A486F
:102C5000006802F0D0FA064642464B4602F09CF865
:102C6000824622462B4602F0D7FBCDE9020102F054
:102C700061F87849086072497648006802F07AFE87
:102C80007549086018E07049888C02F0B4FA06466D
:102C900000226E4B02F028F904460D466648006893
:102CA00002F0A9FA804622462B4602F075F88246C9
:102CB00002F040F867490860402001F0AEFFBDE82F
:102CC000FF9F7FB505460C460121102000F0B7FD9F
:102CD000ADF80850ADF804400020ADF80A00ADF89A
:102CE000060001A9584800F0D5FE012211465648B9
:102CF00001F047FA36208DF8000000208DF8010021
:102D000001208DF802008DF80300684600F005FAF6
:102D100001214D4801F01AFAFFF759FDFFF714FDA4
:102D20007FBD10B50121484801F0D9FC40B1012117
:102D3000454801F0E5FC40480068401C3E490860F9
:102D400010BD10B5012042496C310860142000F01C
:102D5000A8F800204149C1F8840110BD10B5012038
:102D60003F490860142000F09CF800203D49C1F85C
:102D7000800110BD10B501203B490860142000F00F
:102D800090F800203949C1F8840110BD10B5012028
:102D90002F4974310860142000F083F800202F4977
:102DA000C1F88C0110BD10B50120294978310860A7
:102DB000142000F076F800202849C1F8900110BDD9
:102DC0002DE9F84F05460E4600242746A046A146A9
:102DD00000BF10E055F8241055F8270002F096FEC9
:102DE00000D2274655F8241055F8280002F08EFD31
:102DF00000D2A046641CB442ECDB002406E055F887
:102E00002410484602F01EFC8146641CB442F6DBE6
:102E1000B01E02F063FD009055F82710484602F0FE
:102E2000A7FE834655F8281002F0A2FE82460099BC
:102E300002F076FCBDE8F88FFC0E00201C0F00208D
:102E400000002A43180F00200010004000408F406F
:102E500018012342240F0020200F002000002342ED
:102E600080812242008022428401224200002242CC
:102E700010B56FF0040000F09AF92E4800682E4952
:102E8000B0FBF1F02D4908700846007800EB4001D6
:102E9000C1EBC0104FF6FF7101EAC000284908805D
:102EA00010BD0146254A12784A434FF0E0235A618B
:102EB00000229A611A46126942F001021A6100BFAB
:102EC0004FF0E022106900F001021AB100F48032E4
:102ED000002AF5D04FF0E022126922F001024FF0F3
:102EE000E0231A6100229A6170470146144A128851
:102EF0004A434FF0E0235A6100229A611A46126950
:102F000042F001021A6100BF4FF0E022106900F0A8
:102F100001021AB100F48032002AF5D04FF0E0220D
:102F2000126922F001024FF0E0231A6100229A6137
:102F3000704700000000002000127A00280F0020D7
:102F40002A0F002000BF5E49098801F08001002996
:102F5000F9D0C0F308015A4A121D1180704700BF12
:102F60005748008800F020000028F9D05448001D80
:102F70000088C0F30800704700BFFEE710B50346A5
:102F80000C461846FFF7DEFF10BD10B50446FFF7EC
:102F9000E6FF0346FFF7D6FF10BD00B5034618460F
:102FA000FFF7D0FF00BD01464FF0FF30704710B56E
:102FB00086B00446012144F2040000F033FC4FF4D3
:102FC0000070ADF8140003208DF8160018208DF85D
:102FD000170005A93B4800F069F94FF48060ADF88F
:102FE000140004208DF8170005A9364800F05EF99A
:102FF00025208DF8000003208DF801008DF80200D7
:1030000001208DF80300684600F087F80194002045
:10301000ADF80800ADF80A00ADF80C00ADF81000EE
:103020000C20ADF80E0001A9254801F0B0FB0022EC
:1030300040F22551224801F042FC0121204801F0D4
:1030400032FC06B010BD10B540F225511C4801F00D
:103050001BFD10B31A4801F097FCC4B21A4800884F
:1030600000F40040C8B91848008800F4804060B1FE
:103070000A2C03D000201449088020E01248008860
:1030800040F400401049088019E00D2C06D10E488C
:10309000008840F480400C49088010E00A4800880D
:1030A000C0F30D0009490C5407480088401C06492C
:1030B000088008460088C72801DD0020088010BD70
:1030C0000038014000080140340F00207C0F002030
:1030D0000948804709480047FEE7FEE7FEE7FEE7AC
:1030E000FEE7FEE7FEE7FEE7FEE7FEE704480549E8
:1030F000054A064B70470000A7060008310100088A
:10310000A8100020A8160020A8120020A812002055
:1031100031490143314A1160704770B500210023E5
:103120000F22C47804B32D4C246804F4E064C4F581
:10313000E064210AC1F10403CA40447804FA03F1AF
:103140008478144021430901254C0678A155047860
:1031500004F01F050124AC4005786D11AD0005F1A8
:10316000E025C5F8004109E0047804F01F050124BA
:10317000AC401C4D0678761145F8264070BD1A4AC1
:103180000A400243154B1B1F1A60704739B1134A9E
:10319000121D12680243114B1B1D1A6006E00F4AF4
:1031A000121D126882430D4B1B1D1A6070470428C4
:1031B00008D14FF0E021096941F004014FF0E0220D
:1031C000116107E04FF0E021096921F004014FF09F
:1031D000E0221161704700000000FA050CED00E0EC
:1031E00000E400E080E100E080FFFF1F10B504462E
:1031F000CC48844208D10121042000F02DFB00219D
:10320000042000F029FB46E0C748844208D1012190
:10321000082000F021FB0021082000F01DFB3AE00F
:10322000C248844208D10121102000F015FB002182
:10323000102000F011FB2EE0BD48844208D101218E
:10324000202000F009FB0021202000F005FB22E0F7
:10325000B848844208D10121402000F0FDFA002145
:10326000402000F0F9FA16E0B348844208D1012169
:10327000802000F0F1FA0021802000F0EDFA0AE051
:10328000AE48844207D10121801500F0E5FA002103
:10329000A01500F0E1FA10BD10B50121084600F0BC
:1032A000DBFA0021012000F0D7FA10BD2DE9F04132
:1032B000024600250026002000230024002791F864
:1032C00003C00CF00F0591F803C00CF0100CBCF11A
:1032D000000F03D091F802C04CEA050591F800C038
:1032E000BCF1000F31D0146800202BE04FF0010C2E
:1032F0000CFA00F3B1F800C00CEA03069E4220D19C
:1033000083004FF00F0C0CFA03F7BC4305FA03FCE3
:103310004CEA040491F803C0BCF1280F06D14FF029
:10332000010C0CFA00FCC2F814C00AE091F803C0CA
:10333000BCF1480F05D14FF0010C0CFA00FCC2F8AB
:1033400010C0401C0828D1D31460B1F800C0BCF1F3
:10335000FF0F34DD546800202EE000F1080C4FF020
:10336000010808FA0CF3B1F800C00CEA03069E420B
:1033700021D183004FF00F0C0CFA03F7BC4305FA80
:1033800003FC4CEA040491F803C0BCF1280F05D1FA
:1033900000F1080C08FA0CF8C2F8148091F803C088
:1033A000BCF1480F07D100F1080C4FF0010808FAF2
:1033B0000CF8C2F81080401C0828CED35460BDE839
:1033C000F0814FF6FF710180022181700421C170EC
:1033D00070470246002093680B400BB1012000E0CB
:1033E000002070470146886880B27047024600207E
:1033F000D3680B400BB1012000E00020704701466C
:10340000C86880B2704701617047416170470AB176
:10341000016100E041617047C16070474FF4803244
:103420000A438261816182618269826970470246D2
:103430000020434B18684FF68073184040EA021092
:1034400008433F4B186070473E49C8617047F0B56C
:103450000A46002300240021002500F00046B6F1B2
:10346000004F02D1364EF16901E0354E7168C0F36C
:10347000034583B200F44016B6F5401F08D121F091
:1034800070612F4E766826F070662D4F7E6012E0D8
:1034900000F48016B6F5801F06D1032606FA05F45F
:1034A000A14341F0706106E0460D360103FA06F6CD
:1034B000B14341F0706122B1460D360103FA06F6C0
:1034C000314300F00046B6F1004F02D11C4EF161CD
:1034D00001E01B4E7160F0BD30B500228B071C0F60
:1034E0000F2303FA04F2164B08338C1053F82430E0
:1034F0009343134C08348D1044F8253023468C1028
:1035000053F824308C07240F00FA04F423430C4CA6
:1035100008348D1044F8253030BD0A49DC3108608C
:103520007047000000080140000C014000100140FD
:103530000014014000180140001C0140002001401F
:103540000000014000002042DF48006840F0010018
:10355000DD49086008464068DC490840DA494860AF
:1035600008460068DA490840D749086008460068FC
:1035700020F4802008600846406820F4FE0048607F
:103580004FF41F0088607047CF49096821F48031EB
:10359000CD4A11601146096821F480211160B0F50F
:1035A000803F03D0B0F5802F0ED106E0C6490968F0
:1035B00041F48031C44A116007E0C349096841F40D
:1035C000A021C14A116000E000BF00BF704710B5E4
:1035D00001460022002300204A11012A02D1BA4CE0
:1035E000236806E0022A02D1B74C236A01E0B64CF8
:1035F000636A01F01F02012494401C400CB10120B9
:1036000000E0002010BD38B5002000900024002507
:1036100000BF3120FFF7DBFF05460098401C0090FB
:103620000098B0F5A06F01D0002DF2D03120FFF747
:10363000CEFF08B1012400E00024204638BD014639
:103640000020A14A106820F0F80040EAC100106094
:103650007047A04908607047024600209A4B58689E
:1036600020F47C1042EA01031843974B58607047DE
:1036700098490866704701460020934A506820F038
:1036800003000843506070478F48406800F00C000A
:103690007047014600208C4A506820F0F000084333
:1036A0005060704701460020874A506820F4E0606F
:1036B00008435060704701460020834A506820F458
:1036C000605040EAC1005060704729B17E4A527A8A
:1036D00002437D4B5A7204E07B4A527A82437A4B12
:1036E0005A7270477B49D831086070470146002004
:1036F000754A506820F440400843506070470021EC
:10370000714A20321170704A82F82010012802D0CC
:1037100004280AD104E001216B4A2032117005E02F
:103720000521694A2032117000E000BF00BF7047D8
:103730006949086070476449096A0143624A116235
:103740007047654944390860704730B50021002250
:10375000002400235C4D6D6805F00C0121B10429A3
:1037600005D0082923D105E05C4D056022E05B4DC2
:1037700005601FE0544D6D6805F47012524D6D6880
:1037800005F48034022505EB92421CB9544D554393
:1037900005600BE04C4D6D6805F400351DB1504DD2
:1037A0005543056002E04D4D5543056002E04B4D29
:1037B000056000BF00BF444D6D6805F0F0010909C8
:1037C000484D6B5C0568DD4045603F4D6D6805F414
:1037D000E061090A434D6B5C4568DD4085603A4D08
:1037E0006D6805F46051C90A3E4D6B5C4568DD406B
:1037F000C560354D6D6805F44041890B3A4D6B5CF1
:10380000C568B5FBF3F5056130BD29B12E4A526993
:1038100002432D4B5A6104E02B4A526982432A4BE2
:103820005A61704729B1284A92690243264B9A612E
:1038300004E0254A92698243234B9A61704729B17B
:10384000214AD2690243204BDA6104E01E4AD26960
:1038500082431D4BDA61704729B11B4AD26802438B
:10386000194BDA6004E0184AD2688243164BDA60DA
:10387000704729B1144A12690243134B1A6104E0DC
:10388000114A12698243104B1A617047124940393C
:10389000086070470F49C86470470B49C87170478A
:1038A0000948406A40F08070074948627047014605
:1038B0000020054A92680A400AB1012000E0002079
:1038C0007047014988727047001002400000FFF8FD
:1038D000FFFFF6FE000042428004424200127A00DE
:1038E00000093D00360F0020460F002010B50446A9
:1038F000FE48844208D10121C014FFF7ADFF00212A
:10390000E014FFF7A9FFC4E0B4F1804F08D1012112
:103910000846FFF7AEFF00210120FFF7AAFFB8E03D
:10392000F348844208D101210220FFF7A2FF0021C1
:103930000220FFF79EFFACE0EE48844208D101214F
:103940000420FFF796FF00210420FFF792FFA0E07C
:10395000E948844208D101210820FFF78AFF0021AD
:103960000820FFF786FF94E0E448844208D1012153
:103970001020FFF77EFF00211020FFF77AFF88E07C
:10398000DF48844208D101212020FFF772FF002187
:103990002020FFF76EFF7CE0DA48844208D1012145
:1039A0004014FFF759FF00216014FFF755FF70E046
:1039B000D548844209D10121C804FFF74DFF0021F9
:1039C0004FF40020FFF748FF63E0D048844209D15C
:1039D00001210805FFF740FF00214FF48010FFF799
:1039E0003BFF56E0CA48844209D101214805FFF750
:1039F00033FF00214FF40010FFF72EFF49E0C548C8
:103A0000844208D101214020FFF733FF00214020EC
:103A1000FFF72FFF3DE0C048844208D101218020FC
:103A2000FFF727FF00218020FFF723FF31E0BB488D
:103A3000844208D101218015FFF71BFF0021A0154A
:103A4000FFF717FF25E0B648844209D10121080499
:103A5000FFF702FF00214FF48030FFF7FDFE18E072
:103A6000B048844209D101214804FFF7F5FE002146
:103A70004FF40030FFF7F0FE0BE0AB48844208D172
:103A800001218804FFF7E8FE00214FF48020FFF7B2
:103A9000E3FE10BD00220288944B98420ED0994B51
:103AA00098420BD0B0F1804F08D0914B984205D08E
:103AB000904B984202D0904B984204D14FF68F73AE
:103AC0001A404B881A438D4B984207D08C4B984232
:103AD00004D04FF6FF431A40CB881A4302808B88EC
:103AE00083850B880385814B98420BD0854B984288
:103AF00008D08B4B984205D08A4B984202D08A4B13
:103B0000984201D10B7A038601238382704770B5F6
:103B1000002400220023058C4FF6FE7635400584F4
:103B2000028C8388048B4FF68F752C40B51E2C4079
:103B30000D882C43751E2A400D892A434D882A433F
:103B40006A4DA8420BD06F4DA84208D0744DA842D0
:103B500005D0744DA84202D0734DA84213D14FF640
:103B6000F7752A404D892A434FF6FB752A408D8808
:103B70002A434FF6FF652B404FF6FF552B408D89AA
:103B80002B43CD892B4383800483CD888586028493
:103B900070BD70B5002400220023058C4FF6EF762F
:103BA00035400584028C8388048B48F6FF752C40D1
:103BB0004FF6FF452C400D884FF6FF7606EA0525A7
:103BC0002C434FF6DF752A400D8906EA05152A4376
:103BD0004D8806EA05152A43444DA84202D0494DB6
:103BE000A8421DD14FF67F752A404D894FF6FF76CA
:103BF00006EA05152A434FF6BF752A408D8806EA66
:103C000005152A434FF6FF352B404FF2FF752B4029
:103C10008D8906EA85052B43CD8906EA85052B4368
:103C200083800483CD880587028470BD70B500242D
:103C300000220023058C4FF6FF6635400584028C78
:103C40008388848B4FF68F752C404FF6FC752C4083
:103C50000D882C434FF6FF552A400D894FF6FF760D
:103C600006EA05252A434D8806EA05252A431F4D05
:103C7000A84202D0234DA8421DD14FF2FF752A4021
:103C80004D894FF6FF7606EA05252A434FF6FF35A4
:103C90002A408D8806EA05252A434EF6FF752B40FB
:103CA0004DF6FF752B408D8906EA05152B43CD890E
:103CB00006EA05152B4383808483CD88858702849B
:103CC00070BD70B5002200230024058C4EF6FF76EF
:103CD00035400584038C8488828B48F6FF752A4022
:103CE0004FF6FF452A400D8820E00000002C0140DF
:103CF0000004004000080040000C0040001000409C
:103D00000014004000340140004C014000500140CC
:103D10000054014000180040001C004000200040FA
:103D20000040014000440140004801404FF6FF764A
:103D300006EA05252A434DF6FF752B400D8906EA54
:103D400005352B434D8806EA05352B43FA4DA8422D
:103D500002D0FA4DA84208D14BF6FF752C408D8950
:103D60004FF6FF7606EA85152C4384808283CD8842
:103D7000A0F84050038470BD828B4FF2FF331A408D
:103D80008283828B4FF6FF7303EA01231A438283F7
:103D90007047F0B50C461546002200210026078C1E
:103DA0004EF6FF7C07EA0C070784828B018C4FF6E6
:103DB000FF7707EA043640F6FF473A404FF6FF77B1
:103DC00007EA05273A434FF6FF7707EA03373A43F6
:103DD000D94FB8420ED0D94FB8420BD0B0F1804F76
:103DE00008D0D74FB84205D0D64FB84202D0D64FF0
:103DF000B84206D14DF6FF77394046F48057394333
:103E000005E047F6FF57394044F480573943828331
:103E10000184F0BD828B4FF6F3731A408283828B4C
:103E20000A4382837047F0B50C46154600220021F4
:103E30000026078C4FF6FF6C07EA0C070784828B7D
:103E4000018C4FF6FF7707EA04264FF60C773A40CD
:103E50004FF6FF7707EA03172F433A43B64FB842AE
:103E60000ED0B64FB8420BD0B0F1804F08D0B44F4F
:103E7000B84205D0B34FB84202D0B34FB84206D1D2
:103E80004FF6FF57394046F48077394305E04FF24B
:103E9000FF57394044F48077394382830184F0BD71
:103EA000028B4FF2FF331A400283028B4FF6FF73EF
:103EB00003EA01231A4302837047F0B50C46154606
:103EC000002200210026078C4FF6EF7C07EA0C0742
:103ED0000784028B018C4FF6FF7707EA041640F641
:103EE000FF473A404FF6FF7707EA03373A434FF66A
:103EF000FF7707EA05273A438F4FB8420ED08F4F1E
:103F0000B8420BD0B0F1804F08D08D4FB84205D0E9
:103F10008C4FB84202D08C4FB84206D14FF6DF77B3
:103F2000394046F01007394305E04FF65F773940D6
:103F300044F01007394302830184F0BD028B4FF631
:103F4000F3731A400283028B0A4302837047F0B571
:103F50000C46154600220021068C4FF6FE773E40A7
:103F60000684028B018C4FF60C7632407E1C06EAEA
:103F700003162E433243704EB0420ED06F4EB04205
:103F80000BD0B0F1804F08D06D4EB04205D06D4ED1
:103F9000B04202D06C4EB04206D14FF6FD763140B1
:103FA00044F00106314305E04FF6F576314044F028
:103FB0000106314302830184F0BD70B505460C460D
:103FC0005D4885420ED05D4885420BD0B5F1804FEB
:103FD00008D05B48854205D05A48854202D05A48ED
:103FE000854200D100E000BF208850B92389A28813
:103FF00061882846FFF7ABFFE1882846FFF79EFF60
:1040000025E0208804280AD12389A28861882846CF
:10401000FFF753FFE1882846FFF742FF17E02088AB
:1040200008280AD12389A28861882846FFF7FBFE69
:10403000E1882846FFF7EEFE09E02389A28861881F
:104040002846FFF7A6FEE1882846FFF795FE70BDDB
:104050002DE9F04105460C4600260127608808B985
:10406000022600E00026A088012801D1022700E0F6
:1040700001272088A0B92389A28861882846FFF7F4
:1040800066FFE1882846FFF759FF23893A46314603
:104090002846FFF712FFE1882846FFF701FF13E0EB
:1040A0002389A28861882846FFF707FFE188284610
:1040B000FFF7F6FE23893A4631462846FFF747FFC9
:1040C000E1882846FFF73AFFBDE8F0810A884B886F
:1040D0001A438B881A43CB881A430B891A434B899E
:1040E0001A438B891A43A0F8442070474FF6FF719A
:1040F000818000210180C1804180017270470021D0
:10410000018041808180C180018141818181C181A3
:104110007047002101804180012181800021C18000
:10412000018170470021018041808180C18001812F
:104130004181818170470000002C01400034014022
:104140000004004000080040000C004021B102883B
:1041500042F00102028004E002884FF6FE731A402A
:104160000280704731B1B0F8442042F40042A0F818
:10417000442005E0B0F84420C2F30E02A0F8442029
:1041800070471AB183890B43838102E083898B4393
:10419000838170478182704741EA0203A0F848306A
:1041A00070471AB183890B43838102E083898B4373
:1041B0008381704701894FF6F87211400181704781
:1041C0000A46002101894FF68F731940114301817E
:1041D000704730B504460D4629462046FFF7F0FFEC
:1041E000208940F00700208130BD2DE9F0410446D0
:1041F0000D4616461F46602D06D13B46012231462C
:104200002046FFF75AFE05E03B4601223146204694
:10421000FFF79DFE29462046FFF7D2FF208940F098
:1042200007002081BDE8F08130B50C4600210189EE
:10423000C9B24FF6FF7505EA032515432543294307
:10424000018130BD2DE9F04105460E4617469846DE
:10425000002443463A4631462846FFF7E5FF2C89BD
:104260004FF6F870044044F007044FF68F70044096
:1042700044F070042C81BDE8F081F0B504460D4691
:1042800016461F463B46324629462046FFF7CCFFDE
:10429000208940F480402081F0BD018582827047F2
:1042A0000A46002101884FF68F731940114301809F
:1042B0007047F0B50C4615461E460021002200232B
:1042C0000189028B038C4FF6F877394021434FF672
:1042D000FC473A4040F201173A434FF6DD773B4046
:1042E0004FF6FF7707EA06172F433B43018102830E
:1042F0000384F0BD0A460021018B4FF68F731940ED
:104300001143018370470A460021018B48F6FF7371
:1043100019404FF6FF7303EA0223194301837047E4
:104320000A460021818B4FF68F7319401143818318
:1043300070470A460021818B48F6FF7319404FF6FB
:10434000FF7303EA022319438183704721B1028876
:1043500042F08002028004E002884FF67F731A4028
:104360000280704721B1828842F00402828004E01A
:1043700082884FF6FB731A408280704721B1828891
:1043800042F00802828004E082884FF6F7731A40F8
:104390008280704721B1828842F00102828004E06D
:1043A00082884FF6FE731A40828070470A460021C9
:1043B000018B4FF6F77319401143018370470A468A
:1043C0000021018B4FF2FF7319404FF6FF7303EA90
:1043D00002231943018370470A460021818B4FF65F
:1043E000F77319401143818370470A460021818B7E
:1043F0004FF2FF7319404FF6FF7303EA022319438C
:10440000818370470A460021018B4FF6FB731940E8
:104410001143018370470A460021018B4FF6FF3399
:1044200019404FF6FF7303EA0223194301837047D3
:104430000A460021818B4FF6FB731940114381839B
:1044400070470A460021818B4FF6FF3319404FF623
:10445000FF7303EA02231943818370470A46002150
:10446000018B4FF67F7319401143018370470A4651
:104470000021018BC1F30E014FF6FF7303EA022303
:104480001943018370470A460021818B4FF67F73E1
:1044900019401143818370470A460021818BC1F383
:1044A0000E014FF6FF7303EA02231943818370471D
:1044B0000A460021018C4FF6FD7319401143018417
:1044C00070470A460021018C4FF6F77319401143DB
:1044D000018470470A460021018C4FF6DF731940B2
:1044E0004FF6FF7303EA02131943018470470A462B
:1044F0000021018C4FF67F7319404FF6FF7303EADA
:1045000002131943018470470A460021018C4FF6BB
:10451000FF5319404FF6FF7303EA02231943018446
:1045200070470A460021018C4FF2FF7319404FF685
:10453000FF7303EA02231943018470470A460021EE
:10454000018C4DF6FF7319404FF6FF7303EA0233F7
:1045500019430184704730B5002301248C40A3B275
:10456000048C9C430484048C02FA01F5ADB22C4304
:10457000048430BD30B5002304248C40A3B2048CE5
:104580009C430484048C02FA01F5ADB22C430484EC
:1045900030BD70B5034600200024184618300125B0
:1045A0008D40ACB21D8CA5431D8409B1082909D1E9
:1045B00000EB6100056825F070050560056815438E
:1045C00005600EE00D1FC5F34E052844056825F46F
:1045D000E045056005684FF6FF7606EA022635439A
:1045E000056070BD21B1028842F00202028004E041
:1045F00002884FF6FD731A400280704721B102888D
:1046000042F00402028004E002884FF6FB731A4075
:104610000280704721B1828842F08002828004E0EB
:1046200082884FF67F731A408280704702884FF667
:10463000F7731A40028002880A430280704782881A
:104640004FF68F731A40828082880A4382807047B7
:1046500002894FF6F8731A40028102890A430281E7
:10466000704702894FF67F731A40028102890A431C
:1046700002817047818470478185704781867047C9
:104680000187704781877047A0F840107047028803
:104690004FF6FF431A40028002880A4302807047A7
:1046A0000146888E70470146088F70470146888F03
:1046B00070470146B1F8400070470146888C70474A
:1046C0000146088D704702460020138A0B400BB14B
:1046D000012000E000207047CA430282704730B5D5
:1046E0000246002000230024158A05EA010395896B
:1046F00005EA010413B10CB1012000E0002030BD37
:10470000CA4302827047000010B50446FB48844249
:1047100009D101218803FFF79FF800214FF4804061
:10472000FFF79AF832E0F648844209D101214804A3
:10473000FFF79FF800214FF40030FFF79AF825E0CB
:10474000F048844209D101218804FFF792F8002142
:104750004FF48020FFF78DF818E0EB48844209D130
:104760000121C804FFF785F800214FF40020FFF76E
:1047700080F80BE0E548844208D101210805FFF7E5
:1047800078F800214FF48010FFF773F810BD2DE981
:10479000F04786B005460E460024A24600BFA1465B
:1047A0000027B08900B100BF2F462C8A4CF6FF705D
:1047B0000440F08804432C82AC894EF6F310044088
:1047C000B08831890843718908430443AC81AC8ABD
:1047D0004FF6FF400440B0890443AC8201A8FEF7C5
:1047E000B4FFC648874202D1DDF810A001E0DDF831
:1047F0000CA0A88900F4004040B10AEBCA0000EB0D
:104800000A1031684900B0FBF1F807E00AEBCA0072
:1048100000EB0A1031688900B0FBF1F86420B8FBA6
:10482000F0F004012009642101FB1089A88900F43B
:10483000004040B1322000EBC900B0FBF1F000F0C5
:104840000700044308E0322000EB09106421B0FBAC
:10485000F1F000F00F0004432C8106B0BDE8F087B2
:104860004FF41651016000218180C18001810C212B
:10487000418100218181704710B502460020108AD5
:104880004FF2FF0318400B884C8823438C88234346
:10489000CC8823431843108210BD00210180418041
:1048A0008180C180704721B1828942F400528281A7
:1048B00004E082894DF6FF731A4082817047F0B59B
:1048C0000346002400260025002040F66A17B9425E
:1048D00000D100BF1846C1F3421401F01F060127A2
:1048E00007FA06F5012C01D10C3004E0022C01D1AD
:1048F000103000E014301AB107682F43076002E05F
:104900000768AF430760F0BD1AB1838A0B43838207
:1049100002E0838A8B4383827047028A4FF6F073EA
:104920001A400282028A0A430282704782894FF249
:10493000FF731A40828182890A438281704721B1C4
:10494000828942F00202828104E082894FF6FD737F
:104950001A4082817047028A4FF6DF731A40028242
:10496000028A0A430282704721B1028A42F48042DD
:10497000028204E0028A4BF6FF731A4002827047FB
:10498000C1F308028280704701468888C0F308009E
:104990007047818941F0010181817047028BD2B259
:1049A0000283028B42EA012202837047028B02F4E7
:1049B0007F420283028B0A430283704721B1828ABD
:1049C00042F02002828204E0828A4FF6DF731A40AE
:1049D0008282704721B1828A42F01002828204E012
:1049E000828A4FF6EF731A408282704721B1828A21
:1049F00042F00802828204E0828A4FF6F7731A407E
:104A00008282704721B1828942F40042828103E0B0
:104A10008289C2F30E028281704721B1828A42F4F8
:104A20000062828204E0828A4FF2FF731A4082821F
:104A30007047828A4FF6FB731A408282828A0A4349
:104A40008282704721B1828A42F00202828204E0AF
:104A5000828A4FF6FD731A40828270470246002018
:104A6000B1F5007F00D100BF13880B400BB10120CE
:104A700000E00020704701F40072B2F5007F00D121
:104A800000BFCA430280704770B50246002400236D
:104A90000025002040F66A16B14200D100BFC1F3E4
:104AA000421501F01F03012606FA03F3012D02D17E
:104AB0009689334006E0022D02D1168A334001E088
:104AC000968A33400C12012606FA04F41688344004
:104AD00013B10CB1012000E0002070BD10B5002220
:104AE000002340F66A14A14200D100BF0A1201243B
:104AF0009440A3B2DC43048010BD000000380140A4
:104B00000044004000480040004C0040005000407D
:104B1000002044490860091D0860091D0860091D3E
:104B2000086041483F4914310860704700213D4901
:104B30008279002A3AD00A46126803689A430B46E3
:104B40001A600A1D126803689A430B1D1A600279E5
:104B500011440A6803681A430A60324A083212682C
:104B600003689A432F4B08331A601A1D12680368B2
:104B70009A432C4B0C331A604279102A0ED11A1F1B
:104B8000126803681A43274B08331A601A1D12680B
:104B900003681A43234B0C331A600DE02149427914
:104BA00011440A6803681A430A6005E00279114457
:104BB0000A6803689A430A60704700210160017126
:104BC0000C2141710021817170471649103109682B
:104BD0000143144A10321160704701460020114A07
:104BE000143212680A400AB1012000E00020704728
:104BF0000C49143108607047014600200022094B1F
:104C00001B6803EA0102074B14331B680B4013B106
:104C10000AB1012000E00020704702491431086009
:104C20007047000000040140FFFF0F0070470000C4
:104C30000FB4044910B503AA029800F009F810BC9B
:104C40005DF814FB2C0F00207047704770477047C9
:104C5000074B70B50D467B4400F011F8044628461A
:104C600000F020F810B14FF0FF3070BD204670BD4D
:104C700023E3FFFF01694A1C02610878704700B511
:104C80008FB0CDE901310021059105497944CDE985
:104C900003101146684600F02EF80FB000BD00006A
:104CA000E5FFFFFF007B00F080007047754600F0D5
:104CB0003DF8AE4605006946534620F0070085469C
:104CC00018B020B5FEF712FABDE820404FF00006FC
:104CD0004FF000074FF000084FF0000B21F00701E4
:104CE000AC46ACE8C009ACE8C009ACE8C009ACE827
:104CF000C0098D4670472DE9F04106460024D6E9EB
:104D00000170F5688046304603E04146B847641CB0
:104D10003046A8470028F8D12046BDE8F081044677
:104D2000AFF300802046FBF76EFA000000487047A2
:104D30004410002021F00042A2F16052B2F5801F21
:104D400001F0004328BFD2F17F6C0BD95FEA001C51
:104D500043EAC20242EB507018BF704728BF20F0F0
:104D600001007047B2F5801FBCBF184670474FEA7C
:104D7000410C1CF5001F02D2084600F0C2BE70B5FF
:104D800000F0F6FA00000089FFF7F6BF4FF0004090
:104D9000A0F580007047000010B591EA030F48BFEE
:104DA00083F0004300F14083841A71EB030C05D2B9
:104DB000121943EB0C03001B61EB0C01DFF824E13B
:104DC0004FEA1154A4EB135C1EEA430F18BF9EEA8E
:104DD000445F73D023EA0E03DCF1200E21EA045174
:104DE00043F4801332D322FA0CFE10EB0E0023FAA8
:104DF0000CFE41EB0E01CCF1200E03FA0EFE10EB7F
:104E00000E0051F10001B1F5801FCCF1200E32D21D
:104E100001EB045112FA0EF2BDE8104058BF704782
:104E2000401C38BF5FEA420218BF7047002814BF19
:104E300020F0010041F100014FEA410313F5001F8A
:104E400038BF7047A1F1C04100F0E0BA012A43EB3E
:104E50000302ACF1200CDCF11F0E32BF4FF0000E4C
:104E600023FA0CF310EB030041EB0451B4EB115F98
:104E7000D0D0A1EB045101F5801149085FEA300060
:104E800001EB04510ED350F1000038BF12FA0EFEB0
:104E900008D1BDE81040C9E7401C38BF5FEA4202B4
:104EA000CAD1C3E7BDE810404FEA410313F5001F24
:104EB00038BF7047A1F1C04100F0A8BA9EEA445F34
:104EC00008D011EA5E0FBDE8104004BF01F00041B8
:104ED00000207047BDE8104070B500F049FA00BFEF
:104EE00064FBBE3E0000E0FF2DE9C04130B4DFF8B6
:104EF000A0C23CEA111418BF3CEA131400F0EC8085
:104F000081EA03051CEA111444EAD57418BF1CEAAF
:104F1000131500F0C780A4EB05044FF0004545EAE7
:104F2000C12145EAC32341EA505143EA525304F1F7
:104F30007F74994204F500344FEAC0204FEAC22240
:104F400008BF904200F09C804FEA13650FF24016B4
:104F5000765D4FEA134506FB05F7C7F1807706FB40
:104F600007F74FEAD737A7FB03687642C8F58038C2
:104F7000A7FB06CE38BFA8F1010807FB08E64FF0F3
:104F8000000EA6FB028CE6FB03CEDCF1000CCEF19A
:104F9000004E38BFAEF1010EA6FB0C584FF00007D3
:104FA0004FF00005E6FB0E87A1FB08C6A0FB07CE6D
:104FB00016EB0E0645F10005E1FB076515F1E04E25
:104FC0007EBFA4F580345FEA46066D4116F1800786
:104FD00045F100054FEA17274FEA066647EA0567DD
:104FE000A6F1DE46B6F1805F4FEA15251FD9384697
:104FF00024F0010C05EBC471BCF1FE6F01EB0C1148
:1050000002D8F0BCBDE8008124425CBF01F5801EDF
:105010009EEAC47F02D4F0BCBDE80081244238D4AB
:10502000F0BCA1F1C041BDE8004100F0EFB94FEA8A
:10503000D22242EA43524FEAD323A7FB02864FEA29
:10504000D02040EA415007FB03661EEA0E0F4FEAEC
:10505000D12105FB026658BFA6EB0056B6EB005601
:105060004FEA520E4EEAC37E18EB0E0E56EB530E6D
:10507000BDD518EB02085E417F1C55F10005B6E76F
:105080004FF480154FF000074FF000064FF0000876
:10509000ADE7F0BC4FF0000001F1C04101F000416C
:1050A000BDE8008111EA0C1F0CEA131500D00CE0DA
:1050B00013EA0C1F00F025804FF00000F0BC81EADD
:1050C000030101F00041BDE80081F0BCBDE80041F2
:1050D00081EA030100F09AB9F0BCBDE8004170B567
:1050E00000F046F9097EFC3E00F007B881EA0301B2
:1050F0004FF0000001F00041704781EA030100F029
:1051000085B9F0BCBDE800414FF00000214970476F
:10511000FFFDFBF9F7F5F4F2F0EEEDEBE9E8E6E47C
:10512000E3E1E0DEDDDBDAD8D7D5D4D3D1D0CFCD03
:10513000CCCBCAC8C7C6C5C4C2C1C0BFBEBDBCBB3C
:10514000BAB9B8B7B6B5B4B3B2B1B0AFAEADACAB37
:10515000AAA9A8A8A7A6A5A4A3A3A2A1A09F9F9E11
:105160009D9C9C9B9A9999989797969595949393C3
:10517000929191908F8F8E8E8D8C8C8B8B8A89895A
:1051800088888787868585848483838282818180DD
:105190000000FF070000F87F4FEA41034FEA535336
:1051A000A3F58063D3F11E03C8BFD3F1210C0CDD3E
:1051B0004FF0004242EAC12242EA505232FA03FC66
:1051C0008CEAE17CACEBE1707047102BC4BF00208F
:1051D000704703F5787CBCF1FF3F04D06FF00042CC
:1051E00082EA2100704770B500F0C2F8499224802D
:1051F00000207047F2E7B0FA80F310FA03F10AD00A
:10520000C3F11D0303F580634FEA41504FEA035297
:1052100002EBD12170474FF000007047DFF848C122
:1052200070B51CEA111E1EBF1CEA13159EEA0C0F76
:1052300095EA0C0F00F06F8081EA030423EA4C1317
:105240004EEAD47E21EA4C1141F4801143F48013DC
:10525000AE44A1FB024CA0FB0365AEF17F7E361984
:1052600055EB0C05A1FB034C4CF10003A0FB021C09
:1052700016EB0C06654153F10003094218BF46F0D6
:10528000010613F4007F0BD14FEA03314FEA0530DA
:10529000340341EA155140EA16506FF003020AE068
:1052A0004FEAC3214FEAC520F40241EA555140EAD2
:1052B00056506FF0020202EB2E4201EB025585EAD6
:1052C000CE710AD05FEA440C18BF24F0004450F1BC
:1052D000000041F1000120EAD47040F2FE7C6245FA
:1052E00000D270BDA84214BF4FF080444FF040443C
:1052F000002E08BF0024BEF1806FA8BFA1F1C041FD
:10530000BDE8704080F282804FF0000001F1C041A2
:1053100001F0004170479EEA0C0F0CEA131518BF0C
:1053200095EA0C0F06D04FF0000081EA030E0EF054
:10533000004170BD00F01CF88900013E00F007B884
:1053400000F009B84FEA430C5FEA5C5C08D081EAE0
:10535000030100F05BB84FEA410C5FEA5C5CF6D1F8
:105360004FF00000014970470000FF070000F87F80
:105370000EF1020E2EF0030E5EF8046B364205D4D9
:10538000012A43EB030515F5001F12D8012841EB54
:10539000010C1CF5001F0CD80ED14FEAD17C15F57D
:1053A000001F0CEB4C0C0CF1020C08BF4CEBD37C37
:1053B00004E04FF0080C01E04FEAD37C0CEB4C0505
:1053C00026FA05F606F00706B6F1040C06D20EEB37
:1053D000860CBDE870404CF0010C6047DFE80CF033
:1053E000090B02024FF000414FF00000A1F500212F
:1053F00070BD19461046012851EB010418BFD4F5C1
:10540000001484BF002001F0004170BD0808A0F521
:1054100000114FEA3101704710B591EA030F48BF00
:1054200083F000433FF5C0AC841A71EB030C07D244
:1054300012198CF0004C43EB0C03001B61EB0C01C8
:10544000DFF8A4E14FEA1154A4EB135C1EEA430F0A
:1054500018BF9EEA445F00F0B08023EA6E03524218
:1054600021EA0451C3EB6E0338BF5B1EDCF1200E52
:1054700025D322FA0CFE10EB0E0043FA0CFE41EB92
:105480000E01CCF1200E03FA0EFE10EB0E0051F1CE
:105490000001CCF1200E29D412FA0EF201EB0451D6
:1054A000BDE8104058BF7047401C1CBFB2F1004F10
:1054B000704700280CBF491C20F00100704712EB18
:1054C000020E43EB030218BF4FF0010E4EEA4202F8
:1054D000ACF1200CDCF11E0E54D943FA0CFE10EB9B
:1054E0000E0051F1FF31CCF11E0ED5D50EF1010E9B
:1054F00012FA0EFE404141EB010101EB445C5FEA10
:105500005C5C10D910EBDE7001EB045138BFBEF1CA
:10551000004FBDE8104018BF704700280CBF491C61
:1055200020F00100704730D24FEAD42C11F5001161
:1055300024F400641BD0B1FA81F20B3AA41AA41E21
:10554000D2F12003914030FA03F31943904001EB6C
:10555000CC71002C01EB0451BDE81040A8BF70478E
:1055600001F1C0414FF0000001F000417047B0FA76
:1055700080F310FA03F100D110BDE41A173C48057E
:10558000C90AE4E701EB045110BD491001EB0451D5
:10559000BDE810404FEA300002E04FF000017047D4
:1055A0004A0008BF0042F8D0B2F5001F28BF70477C
:1055B00001F000414FF0000070479EEA445F07D0C1
:1055C00011EA5E0FBDE8104004BF002100207047C3
:1055D000BDE8104070B5FFF7CBFE00BF40DFF63EE0
:1055E00083F00041104670470000E0FF43004FEA9F
:1055F000D30C4FEA3C0C43401FBF40070CF16051F5
:1056000013F0FE4F70471CF0006F03D100200CF028
:10561000004170470CF0004343EA507010B540EA77
:10562000CC0000F028FA00BF000000924FEA000111
:10563000FFF7ECBE4FF000414FF00000A1F5002154
:105640007047000090EA010F48BF81F0004100F16F
:105650009682421A3CBF801A89184FEAD0524FF006
:105660007F4C1CEA410FA2EBD15318BF9CEA026F9A
:1056700000F03B804FF0004C4CEA00204CEA012146
:1056800021FA03FC10EB0C0C1ED202F1FF325FEA90
:105690001C2040EBC25038BF70471CF07F0F4FEA10
:1056A000400C18BFBCF17F4F38BF7047C3F12003D7
:1056B000994008BF20F00100BCF17F4F38BF704710
:1056C000A0F1C04000F01DBA4FEA3C00000A40EBD8
:1056D000C25028BF1CF0FF0F4FEA400CE6D018BFA5
:1056E000BCF17F4F38BF7047EAE79CEA026F05D0F4
:1056F00010EA5C0F08BF00F00040704710B500F0E2
:10570000BAF900BF64FBBE3E401058BFC0F1404034
:10571000491058BFC1F140418142EFF3008070470A
:105720004FF47F0C1CEAD0121EBF1CEAD11392EA80
:105730000C0F93EA0C0F00F0858090EA010F48BF30
:1057400042F4807240F4000C41F400002CF07F41E0
:1057500020F07F4000B58142A2EB03020FF2081C4B
:10576000ACEB504EC0F100009EF800E04FEA4E0E48
:1057700000FB0EFC38BF49004FEA2C1C02F5FA0270
:105780000CFB0EF34FEACE1E4FEA112C4FEAC1215B
:105790000EEB635E42EB22420EFB0CFC4FEA1C5305
:1057A00000FB03114FEA112C4FEA01310EFB0CFCF8
:1057B0004FEADC4C00FB0C11C14228BF09184CEB2E
:1057C00003335DF804EB10EB410143EBC250B2F53B
:1057D0007C0F38BF704729D512F0F00F1CBF00F1C5
:1057E000C04000F000407047008182838485868736
:1057F00088898B8C8D8E8F919293959697999A9C90
:105800009D9FA0A2A3A5A7A8AAACAEB0B2B3B5B7FE
:10581000B9BCBEC0C2C5C7C9CCCED1D4D7D9DCDFD4
:10582000E2E6E9ECF0F3F7FAFE0000004FEA400C84
:105830000CF1807CBCF17E4F28BF7047B0F1C040B6
:1058400000F05FB990EA010F0CEAD11348BF42F4AF
:105850008072624538BF634507D213F47F0F16D0BC
:1058600080EA010000F00040704710B500F003F935
:10587000097EFC3E00F005B880EA010000F000401F
:10588000704780EA010000F0004000F03AB912F4DD
:105890007F0F04BF0248704780EA010000F031B971
:1058A0000000C07F41000B0ED3F19E0208D950F4D6
:1058B00000034FEA032323FA02F048BF4042704737
:1058C00010B500F0D8F800BF49922480002070473E
:1058D0006FF0004282EA20007047000010F00041A3
:1058E00048BF4042B0FA80F310FA03F2C3F19D03BF
:1058F0000BD051EAC35101EB1220530638BF704759
:1059000000F1010008BF20F00100704750EA010CCF
:1059100000F113801CF5000F58BFBCF5000F01D437
:105920008842704707D710F5000F58BF11F5000FD8
:1059300015D488427047894270471CF5000F04D582
:10594000BCF5000FF7D5814270474FF0807C1CEB0F
:10595000400F38BF1CEB410F01D28142704710B598
:1059600000F089F8922449004FF000504FF0805128
:10597000FFF7CABE4FF47F0C1CEAD0121EBF1CEA10
:10598000D11392EA0C0F93EA0C0F00F0478090EAD3
:10599000010F48BF42F480724FF0004C4CEA0020E7
:1059A0004CEA012102EB0302A0FB0113A2F5000265
:1059B000002918BF43F001035B0028BF4FEA3303FF
:1059C00042EB22425FEA132C4CEBC2502EBFBCEBE1
:1059D000436FB2F57C0F70474FEA036CBCF1004F88
:1059E00008BF20F00100B2F57C0F38BF70470BD51F
:1059F00082F0FF0212F5803FC8BF704700F1C0403F
:105A0000D8BF00F00040704700F5000C5FEA4C0C76
:105A100048BF7047B0F1C04000F073B890EA010F82
:105A20000CEAD11348BF42F48072624538BF634527
:105A300004D280EA010000F00040704710B500F089
:105A40001AF800BF8900013E00F007B800F009B85D
:105A50005FEA410C5FEA1C6C08D080EA010000F0AC
:105A600050B85FEA400C5FEA1C6CF6D14FF0004082
:105A7000A0F5800070470EF1020E2EF0030E5EF8C6
:105A8000044B244204D44FEA4102B2F17F4F11D8B3
:105A90004FEA4003B3F17F4F0CD80ED14FEAD07CD0
:105AA000B2F17F4F0CEB4C0C0CF1020C08BF4CEB2D
:105AB000D17C04E04FF0080C01E04FEAD17C0CEB04
:105AC0004C0324FA03F404F00704B4F1040C06D2E6
:105AD0000EEB840CBDE810404CF0010C6047DFE891
